{"contracts/MoneroBridgeDLEQ.sol":{"MoneroBridgeDLEQ":{"abi":[{"inputs":[{"internalType":"address","name":"_verifier","type":"address"}],"stateMutability":"nonpayable","type":"constructor"},{"anonymous":false,"inputs":[{"indexed":true,"internalType":"bytes32","name":"outputId","type":"bytes32"},{"indexed":true,"internalType":"address","name":"recipient","type":"address"},{"indexed":false,"internalType":"uint256","name":"amount","type":"uint256"}],"name":"BridgeProofVerified","type":"event"},{"anonymous":false,"inputs":[{"indexed":false,"internalType":"bytes32","name":"R_x","type":"bytes32"},{"indexed":false,"internalType":"bytes32","name":"S_x","type":"bytes32"},{"indexed":false,"internalType":"bytes32","name":"P_compressed","type":"bytes32"}],"name":"Ed25519Verified","type":"event"},{"inputs":[{"internalType":"bytes32","name":"outputId","type":"bytes32"}],"name":"isOutputUsed","outputs":[{"internalType":"bool","name":"","type":"bool"}],"stateMutability":"view","type":"function"},{"inputs":[{"internalType":"bytes32","name":"","type":"bytes32"}],"name":"usedOutputs","outputs":[{"internalType":"bool","name":"","type":"bool"}],"stateMutability":"view","type":"function"},{"inputs":[],"name":"verifier","outputs":[{"internalType":"contract IVerifier","name":"","type":"address"}],"stateMutability":"view","type":"function"},{"inputs":[{"internalType":"uint256[8]","name":"proof","type":"uint256[8]"},{"internalType":"uint256[6]","name":"publicSignals","type":"uint256[6]"},{"components":[{"internalType":"uint256","name":"c","type":"uint256"},{"internalType":"uint256","name":"s","type":"uint256"},{"internalType":"uint256","name":"K1_x","type":"uint256"},{"internalType":"uint256","name":"K1_y","type":"uint256"},{"internalType":"uint256","name":"K2_x","type":"uint256"},{"internalType":"uint256","name":"K2_y","type":"uint256"}],"internalType":"struct MoneroBridgeDLEQ.DLEQProof","name":"dleqProof","type":"tuple"},{"components":[{"internalType":"uint256","name":"G_x","type":"uint256"},{"internalType":"uint256","name":"G_y","type":"uint256"},{"internalType":"uint256","name":"A_x","type":"uint256"},{"internalType":"uint256","name":"A_y","type":"uint256"},{"internalType":"uint256","name":"B_x","type":"uint256"},{"internalType":"uint256","name":"B_y","type":"uint256"},{"internalType":"uint256","name":"H_s","type":"uint256"}],"internalType":"struct MoneroBridgeDLEQ.Ed25519Proof","name":"ed25519Proof","type":"tuple"}],"name":"verifyAndMint","outputs":[],"stateMutability":"nonpayable","type":"function"}],"evm":{"bytecode":{"linkReferences":{},"object":"60a03461007257601f610a8c38819003918201601f19168301916001600160401b038311848410176100775780849260209460405283398101031261007257516001600160a01b03811690819003610072576080526040516109fe908161008e823960805181818160bd015261023f0152f35b600080fd5b634e487b7160e01b600052604160045260246000fdfe6080604081815260048036101561001557600080fd5b600092833560e01c9081630e68e5ce146100f0575080632b7ac3f3146100a8578063a43c69db1461007d5763e0d5b8cc1461004f57600080fd5b34610079576020366003190112610079578160209360ff9235815280855220541690519015158152f35b8280fd5b5034610079576020366003190112610079578160209360ff9235815280855220541690519015158152f35b5050346100ec57816003193601126100ec57517f00000000000000000000000000000000000000000000000000000000000000006001600160a01b03168152602090f35b5080fd5b91849150346100ec576103603660031901126100ec5761010493368511610079576101c4943686116106185760c0366101c31901126106185760e03661028319011261061857916101408561061c565b8035855260249560209487358688015283519461015c8661061c565b8451926101688461061c565b6044998a35855260649485358a820152885286516101858161061c565b608435815260a4358a820152898901528651946101a18661061c565b60c435865260e4358a870152875163f398789b60e01b81529a6101c790888d019061066a565b8b8b01989685995b6002808c101561021a578a8d918b51848b905b8382106101fc57505050506001920199019a0199976101cf565b82945094809193956001935181520193019101908f93918e936101e2565b5050918a9189938d8f996102329060c483019061066a565b60c08880830137848188817f00000000000000000000000000000000000000000000000000000000000000006001600160a01b03165afa90811561060e5789916105ab575b501561057a579087939291610284359661032a6102a4359188519a61029b8c61061c565b8a8c5283888d01528951916102af8361061c565b6102c43583526102e435898401528a51916102c98361061c565b359c8d83528a8a8401528b516102de8161061c565b610124359b8c82528b8201528c51936102f68561061c565b610204358552610224358c8601528d51956103108761061c565b610244358752610264358d8801526101e435943593610692565b156105465786519761033b8961061c565b88528488015285519661034d8861061c565b610304358852610324358589015286516103668161061c565b8a8661038c610144359b8c85528285019384526103876103443580976108e4565b6107ff565b9283519051149283610537575b505050156104f85786518581019165185b5bdd5b9d60d21b83526026820152602681526103c58161064e565b51902060c01c99610184359a8b036104c5578651858101908a825289898201528881526103f18161064e565b51902093848b528a865260ff888c2054166104905750505050917fba20cafe06d609214664dffaf8f92ba828a6fecd3cedcd25b4719dce30d9048a9593918884606097958a52898352848a20600160ff1982541617905567ffffffffffffffff85519216610164351882527f8811769d1b8ad6b8d0e48cbdb48833dc26328110a9474690b08ff030479e49fd833393a38251948552840152820152a180f35b875162461bcd60e51b81529283018690526014908301527313dd5d1c1d5d08185b1c9958591e481cdc195b9d60621b90820152fd5b865162461bcd60e51b815291820185905260128285015271496e76616c696420616d6f756e74206b657960701b90820152fd5b50855162461bcd60e51b8152908101849052601a818401527f496e76616c69642045643235353139206f7065726174696f6e73000000000000818b0152fd5b015190511490508c8681610399565b50855162461bcd60e51b81529081018490526012818401527124b73b30b634b210222622a890383937b7b360711b818b0152fd5b845162461bcd60e51b81529081018490526010818401526f24b73b30b634b2102d2590383937b7b360811b818a0152fd5b9050843d8611610607575b601f8101601f1916820167ffffffffffffffff8111838210176105f557869183918952810103126105f1575180151581036105f1578a610277565b8880fd5b634e487b7160e01b8b5260418452858bfd5b503d6105b6565b86513d8b823e3d90fd5b8380fd5b6040810190811067ffffffffffffffff82111761063857604052565b634e487b7160e01b600052604160045260246000fd5b6060810190811067ffffffffffffffff82111761063857604052565b6000915b6002831061067b57505050565b60019082518152602080910192019201919061066e565b93969194957f1000000000000000000000000000000014def9dea2f79cd65812631a5cf5d3ed96878110156107dd576106cb81876108e4565b6106de6106d88b8a6108e4565b846107ff565b8151815114918215926107eb575b50506107dd576106fc90836108e4565b61070f6107098a876108e4565b856107ff565b8151815114918215926107c9575b50506107bc5784519560208096015194868451940151918781519101519088835193015193898651960151968a8951990151996040519b8c019c8d5260408c015260608b015260808a015260a089015260c088015260e0870152610100860152610120850152610140840152610160830152610180908183015281526101a0810181811067ffffffffffffffff82111761063857604052519020061490565b5050505050505050600090565b60209192508101519101511415388061071d565b505050505050505050600090565b6020919250810151910151141538806106ec565b9060209160405161080f8161061c565b60009381858093520152602081519101519260208351930151916013600160ff1b03928381870984868409858281837f52036cee2b6ffe738cc740797779e89800700a4d4141d8ab75eb4dca135978a30909908603908682116108d057808703958787116108bc575086809594929381809561089c82610893818098600108610977565b9b600108610977565b92080997604051996108ad8b61061c565b09920908098252602082015290565b634e487b7160e01b81526011600452602490fd5b634e487b7160e01b86526011600452602486fd5b90600060206040516108f58161061c565b8281520152801561095b5760405161090c8161061c565b600081528160019182602082015293905b6109275750505090565b8180841614610945575b8061093b916107ff565b91811c918261091d565b926109538461093b926107ff565b939050610931565b50506040516109698161061c565b600081526001602082015290565b6015600160ff1b03906001906013600160ff1b039081900682845b61099e57505050905090565b80808616146109bc575b829394811c92828493099294939291610992565b828281950993506109a856fea264697066735822122087d60dd093fa008cf7d19ec329fbf31ed6e02863d12c9b02e56d0d112d0f6fda64736f6c63430008140033","opcodes":"PUSH1 0xA0 CALLVALUE PUSH2 0x72 JUMPI PUSH1 0x1F PUSH2 0xA8C CODESIZE DUP2 SWAP1 SUB SWAP2 DUP3 ADD PUSH1 0x1F NOT AND DUP4 ADD SWAP2 PUSH1 0x1 PUSH1 0x1 PUSH1 0x40 SHL SUB DUP4 GT DUP5 DUP5 LT OR PUSH2 0x77 JUMPI DUP1 DUP5 SWAP3 PUSH1 0x20 SWAP5 PUSH1 0x40 MSTORE DUP4 CODECOPY DUP2 ADD SUB SLT PUSH2 0x72 JUMPI MLOAD PUSH1 0x1 PUSH1 0x1 PUSH1 0xA0 SHL SUB DUP2 AND SWAP1 DUP2 SWAP1 SUB PUSH2 0x72 JUMPI PUSH1 0x80 MSTORE PUSH1 0x40 MLOAD PUSH2 0x9FE SWAP1 DUP2 PUSH2 0x8E DUP3 CODECOPY PUSH1 0x80 MLOAD DUP2 DUP2 DUP2 PUSH1 0xBD ADD MSTORE PUSH2 0x23F ADD MSTORE RETURN JUMPDEST PUSH1 0x0 DUP1 REVERT JUMPDEST PUSH4 0x4E487B71 PUSH1 0xE0 SHL PUSH1 0x0 MSTORE PUSH1 0x41 PUSH1 0x4 MSTORE PUSH1 0x24 PUSH1 0x0 REVERT INVALID PUSH1 0x80 PUSH1 0x40 DUP2 DUP2 MSTORE PUSH1 0x4 DUP1 CALLDATASIZE LT ISZERO PUSH2 0x15 JUMPI PUSH1 0x0 DUP1 REVERT JUMPDEST PUSH1 0x0 SWAP3 DUP4 CALLDATALOAD PUSH1 0xE0 SHR SWAP1 DUP2 PUSH4 0xE68E5CE EQ PUSH2 0xF0 JUMPI POP DUP1 PUSH4 0x2B7AC3F3 EQ PUSH2 0xA8 JUMPI DUP1 PUSH4 0xA43C69DB EQ PUSH2 0x7D JUMPI PUSH4 0xE0D5B8CC EQ PUSH2 0x4F JUMPI PUSH1 0x0 DUP1 REVERT JUMPDEST CALLVALUE PUSH2 0x79 JUMPI PUSH1 0x20 CALLDATASIZE PUSH1 0x3 NOT ADD SLT PUSH2 0x79 JUMPI DUP2 PUSH1 0x20 SWAP4 PUSH1 0xFF SWAP3 CALLDATALOAD DUP2 MSTORE DUP1 DUP6 MSTORE KECCAK256 SLOAD AND SWAP1 MLOAD SWAP1 ISZERO ISZERO DUP2 MSTORE RETURN JUMPDEST DUP3 DUP1 REVERT JUMPDEST POP CALLVALUE PUSH2 0x79 JUMPI PUSH1 0x20 CALLDATASIZE PUSH1 0x3 NOT ADD SLT PUSH2 0x79 JUMPI DUP2 PUSH1 0x20 SWAP4 PUSH1 0xFF SWAP3 CALLDATALOAD DUP2 MSTORE DUP1 DUP6 MSTORE KECCAK256 SLOAD AND SWAP1 MLOAD SWAP1 ISZERO ISZERO DUP2 MSTORE RETURN JUMPDEST POP POP CALLVALUE PUSH2 0xEC JUMPI DUP2 PUSH1 0x3 NOT CALLDATASIZE ADD SLT PUSH2 0xEC JUMPI MLOAD PUSH32 0x0 PUSH1 0x1 PUSH1 0x1 PUSH1 0xA0 SHL SUB AND DUP2 MSTORE PUSH1 0x20 SWAP1 RETURN JUMPDEST POP DUP1 REVERT JUMPDEST SWAP2 DUP5 SWAP2 POP CALLVALUE PUSH2 0xEC JUMPI PUSH2 0x360 CALLDATASIZE PUSH1 0x3 NOT ADD SLT PUSH2 0xEC JUMPI PUSH2 0x104 SWAP4 CALLDATASIZE DUP6 GT PUSH2 0x79 JUMPI PUSH2 0x1C4 SWAP5 CALLDATASIZE DUP7 GT PUSH2 0x618 JUMPI PUSH1 0xC0 CALLDATASIZE PUSH2 0x1C3 NOT ADD SLT PUSH2 0x618 JUMPI PUSH1 0xE0 CALLDATASIZE PUSH2 0x283 NOT ADD SLT PUSH2 0x618 JUMPI SWAP2 PUSH2 0x140 DUP6 PUSH2 0x61C JUMP JUMPDEST DUP1 CALLDATALOAD DUP6 MSTORE PUSH1 0x24 SWAP6 PUSH1 0x20 SWAP5 DUP8 CALLDATALOAD DUP7 DUP9 ADD MSTORE DUP4 MLOAD SWAP5 PUSH2 0x15C DUP7 PUSH2 0x61C JUMP JUMPDEST DUP5 MLOAD SWAP3 PUSH2 0x168 DUP5 PUSH2 0x61C JUMP JUMPDEST PUSH1 0x44 SWAP10 DUP11 CALLDATALOAD DUP6 MSTORE PUSH1 0x64 SWAP5 DUP6 CALLDATALOAD DUP11 DUP3 ADD MSTORE DUP9 MSTORE DUP7 MLOAD PUSH2 0x185 DUP2 PUSH2 0x61C JUMP JUMPDEST PUSH1 0x84 CALLDATALOAD DUP2 MSTORE PUSH1 0xA4 CALLDATALOAD DUP11 DUP3 ADD MSTORE DUP10 DUP10 ADD MSTORE DUP7 MLOAD SWAP5 PUSH2 0x1A1 DUP7 PUSH2 0x61C JUMP JUMPDEST PUSH1 0xC4 CALLDATALOAD DUP7 MSTORE PUSH1 0xE4 CALLDATALOAD DUP11 DUP8 ADD MSTORE DUP8 MLOAD PUSH4 0xF398789B PUSH1 0xE0 SHL DUP2 MSTORE SWAP11 PUSH2 0x1C7 SWAP1 DUP9 DUP14 ADD SWAP1 PUSH2 0x66A JUMP JUMPDEST DUP12 DUP12 ADD SWAP9 SWAP7 DUP6 SWAP10 JUMPDEST PUSH1 0x2 DUP1 DUP13 LT ISZERO PUSH2 0x21A JUMPI DUP11 DUP14 SWAP2 DUP12 MLOAD DUP5 DUP12 SWAP1 JUMPDEST DUP4 DUP3 LT PUSH2 0x1FC JUMPI POP POP POP POP PUSH1 0x1 SWAP3 ADD SWAP10 ADD SWAP11 ADD SWAP10 SWAP8 PUSH2 0x1CF JUMP JUMPDEST DUP3 SWAP5 POP SWAP5 DUP1 SWAP2 SWAP4 SWAP6 PUSH1 0x1 SWAP4 MLOAD DUP2 MSTORE ADD SWAP4 ADD SWAP2 ADD SWAP1 DUP16 SWAP4 SWAP2 DUP15 SWAP4 PUSH2 0x1E2 JUMP JUMPDEST POP POP SWAP2 DUP11 SWAP2 DUP10 SWAP4 DUP14 DUP16 SWAP10 PUSH2 0x232 SWAP1 PUSH1 0xC4 DUP4 ADD SWAP1 PUSH2 0x66A JUMP JUMPDEST PUSH1 0xC0 DUP9 DUP1 DUP4 ADD CALLDATACOPY DUP5 DUP2 DUP9 DUP2 PUSH32 0x0 PUSH1 0x1 PUSH1 0x1 PUSH1 0xA0 SHL SUB AND GAS STATICCALL SWAP1 DUP2 ISZERO PUSH2 0x60E JUMPI DUP10 SWAP2 PUSH2 0x5AB JUMPI JUMPDEST POP ISZERO PUSH2 0x57A JUMPI SWAP1 DUP8 SWAP4 SWAP3 SWAP2 PUSH2 0x284 CALLDATALOAD SWAP7 PUSH2 0x32A PUSH2 0x2A4 CALLDATALOAD SWAP2 DUP9 MLOAD SWAP11 PUSH2 0x29B DUP13 PUSH2 0x61C JUMP JUMPDEST DUP11 DUP13 MSTORE DUP4 DUP9 DUP14 ADD MSTORE DUP10 MLOAD SWAP2 PUSH2 0x2AF DUP4 PUSH2 0x61C JUMP JUMPDEST PUSH2 0x2C4 CALLDATALOAD DUP4 MSTORE PUSH2 0x2E4 CALLDATALOAD DUP10 DUP5 ADD MSTORE DUP11 MLOAD SWAP2 PUSH2 0x2C9 DUP4 PUSH2 0x61C JUMP JUMPDEST CALLDATALOAD SWAP13 DUP14 DUP4 MSTORE DUP11 DUP11 DUP5 ADD MSTORE DUP12 MLOAD PUSH2 0x2DE DUP2 PUSH2 0x61C JUMP JUMPDEST PUSH2 0x124 CALLDATALOAD SWAP12 DUP13 DUP3 MSTORE DUP12 DUP3 ADD MSTORE DUP13 MLOAD SWAP4 PUSH2 0x2F6 DUP6 PUSH2 0x61C JUMP JUMPDEST PUSH2 0x204 CALLDATALOAD DUP6 MSTORE PUSH2 0x224 CALLDATALOAD DUP13 DUP7 ADD MSTORE DUP14 MLOAD SWAP6 PUSH2 0x310 DUP8 PUSH2 0x61C JUMP JUMPDEST PUSH2 0x244 CALLDATALOAD DUP8 MSTORE PUSH2 0x264 CALLDATALOAD DUP14 DUP9 ADD MSTORE PUSH2 0x1E4 CALLDATALOAD SWAP5 CALLDATALOAD SWAP4 PUSH2 0x692 JUMP JUMPDEST ISZERO PUSH2 0x546 JUMPI DUP7 MLOAD SWAP8 PUSH2 0x33B DUP10 PUSH2 0x61C JUMP JUMPDEST DUP9 MSTORE DUP5 DUP9 ADD MSTORE DUP6 MLOAD SWAP7 PUSH2 0x34D DUP9 PUSH2 0x61C JUMP JUMPDEST PUSH2 0x304 CALLDATALOAD DUP9 MSTORE PUSH2 0x324 CALLDATALOAD DUP6 DUP10 ADD MSTORE DUP7 MLOAD PUSH2 0x366 DUP2 PUSH2 0x61C JUMP JUMPDEST DUP11 DUP7 PUSH2 0x38C PUSH2 0x144 CALLDATALOAD SWAP12 DUP13 DUP6 MSTORE DUP3 DUP6 ADD SWAP4 DUP5 MSTORE PUSH2 0x387 PUSH2 0x344 CALLDATALOAD DUP1 SWAP8 PUSH2 0x8E4 JUMP JUMPDEST PUSH2 0x7FF JUMP JUMPDEST SWAP3 DUP4 MLOAD SWAP1 MLOAD EQ SWAP3 DUP4 PUSH2 0x537 JUMPI JUMPDEST POP POP POP ISZERO PUSH2 0x4F8 JUMPI DUP7 MLOAD DUP6 DUP2 ADD SWAP2 PUSH6 0x185B5BDD5B9D PUSH1 0xD2 SHL DUP4 MSTORE PUSH1 0x26 DUP3 ADD MSTORE PUSH1 0x26 DUP2 MSTORE PUSH2 0x3C5 DUP2 PUSH2 0x64E JUMP JUMPDEST MLOAD SWAP1 KECCAK256 PUSH1 0xC0 SHR SWAP10 PUSH2 0x184 CALLDATALOAD SWAP11 DUP12 SUB PUSH2 0x4C5 JUMPI DUP7 MLOAD DUP6 DUP2 ADD SWAP1 DUP11 DUP3 MSTORE DUP10 DUP10 DUP3 ADD MSTORE DUP9 DUP2 MSTORE PUSH2 0x3F1 DUP2 PUSH2 0x64E JUMP JUMPDEST MLOAD SWAP1 KECCAK256 SWAP4 DUP5 DUP12 MSTORE DUP11 DUP7 MSTORE PUSH1 0xFF DUP9 DUP13 KECCAK256 SLOAD AND PUSH2 0x490 JUMPI POP POP POP POP SWAP2 PUSH32 0xBA20CAFE06D609214664DFFAF8F92BA828A6FECD3CEDCD25B4719DCE30D9048A SWAP6 SWAP4 SWAP2 DUP9 DUP5 PUSH1 0x60 SWAP8 SWAP6 DUP11 MSTORE DUP10 DUP4 MSTORE DUP5 DUP11 KECCAK256 PUSH1 0x1 PUSH1 0xFF NOT DUP3 SLOAD AND OR SWAP1 SSTORE PUSH8 0xFFFFFFFFFFFFFFFF DUP6 MLOAD SWAP3 AND PUSH2 0x164 CALLDATALOAD XOR DUP3 MSTORE PUSH32 0x8811769D1B8AD6B8D0E48CBDB48833DC26328110A9474690B08FF030479E49FD DUP4 CALLER SWAP4 LOG3 DUP3 MLOAD SWAP5 DUP6 MSTORE DUP5 ADD MSTORE DUP3 ADD MSTORE LOG1 DUP1 RETURN JUMPDEST DUP8 MLOAD PUSH3 0x461BCD PUSH1 0xE5 SHL DUP2 MSTORE SWAP3 DUP4 ADD DUP7 SWAP1 MSTORE PUSH1 0x14 SWAP1 DUP4 ADD MSTORE PUSH20 0x13DD5D1C1D5D08185B1C9958591E481CDC195B9D PUSH1 0x62 SHL SWAP1 DUP3 ADD MSTORE REVERT JUMPDEST DUP7 MLOAD PUSH3 0x461BCD PUSH1 0xE5 SHL DUP2 MSTORE SWAP2 DUP3 ADD DUP6 SWAP1 MSTORE PUSH1 0x12 DUP3 DUP6 ADD MSTORE PUSH18 0x496E76616C696420616D6F756E74206B6579 PUSH1 0x70 SHL SWAP1 DUP3 ADD MSTORE REVERT JUMPDEST POP DUP6 MLOAD PUSH3 0x461BCD PUSH1 0xE5 SHL DUP2 MSTORE SWAP1 DUP2 ADD DUP5 SWAP1 MSTORE PUSH1 0x1A DUP2 DUP5 ADD MSTORE PUSH32 0x496E76616C69642045643235353139206F7065726174696F6E73000000000000 DUP2 DUP12 ADD MSTORE REVERT JUMPDEST ADD MLOAD SWAP1 MLOAD EQ SWAP1 POP DUP13 DUP7 DUP2 PUSH2 0x399 JUMP JUMPDEST POP DUP6 MLOAD PUSH3 0x461BCD PUSH1 0xE5 SHL DUP2 MSTORE SWAP1 DUP2 ADD DUP5 SWAP1 MSTORE PUSH1 0x12 DUP2 DUP5 ADD MSTORE PUSH18 0x24B73B30B634B210222622A890383937B7B3 PUSH1 0x71 SHL DUP2 DUP12 ADD MSTORE REVERT JUMPDEST DUP5 MLOAD PUSH3 0x461BCD PUSH1 0xE5 SHL DUP2 MSTORE SWAP1 DUP2 ADD DUP5 SWAP1 MSTORE PUSH1 0x10 DUP2 DUP5 ADD MSTORE PUSH16 0x24B73B30B634B2102D2590383937B7B3 PUSH1 0x81 SHL DUP2 DUP11 ADD MSTORE REVERT JUMPDEST SWAP1 POP DUP5 RETURNDATASIZE DUP7 GT PUSH2 0x607 JUMPI JUMPDEST PUSH1 0x1F DUP2 ADD PUSH1 0x1F NOT AND DUP3 ADD PUSH8 0xFFFFFFFFFFFFFFFF DUP2 GT DUP4 DUP3 LT OR PUSH2 0x5F5 JUMPI DUP7 SWAP2 DUP4 SWAP2 DUP10 MSTORE DUP2 ADD SUB SLT PUSH2 0x5F1 JUMPI MLOAD DUP1 ISZERO ISZERO DUP2 SUB PUSH2 0x5F1 JUMPI DUP11 PUSH2 0x277 JUMP JUMPDEST DUP9 DUP1 REVERT JUMPDEST PUSH4 0x4E487B71 PUSH1 0xE0 SHL DUP12 MSTORE PUSH1 0x41 DUP5 MSTORE DUP6 DUP12 REVERT JUMPDEST POP RETURNDATASIZE PUSH2 0x5B6 JUMP JUMPDEST DUP7 MLOAD RETURNDATASIZE DUP12 DUP3 RETURNDATACOPY RETURNDATASIZE SWAP1 REVERT JUMPDEST DUP4 DUP1 REVERT JUMPDEST PUSH1 0x40 DUP2 ADD SWAP1 DUP2 LT PUSH8 0xFFFFFFFFFFFFFFFF DUP3 GT OR PUSH2 0x638 JUMPI PUSH1 0x40 MSTORE JUMP JUMPDEST PUSH4 0x4E487B71 PUSH1 0xE0 SHL PUSH1 0x0 MSTORE PUSH1 0x41 PUSH1 0x4 MSTORE PUSH1 0x24 PUSH1 0x0 REVERT JUMPDEST PUSH1 0x60 DUP2 ADD SWAP1 DUP2 LT PUSH8 0xFFFFFFFFFFFFFFFF DUP3 GT OR PUSH2 0x638 JUMPI PUSH1 0x40 MSTORE JUMP JUMPDEST PUSH1 0x0 SWAP2 JUMPDEST PUSH1 0x2 DUP4 LT PUSH2 0x67B JUMPI POP POP POP JUMP JUMPDEST PUSH1 0x1 SWAP1 DUP3 MLOAD DUP2 MSTORE PUSH1 0x20 DUP1 SWAP2 ADD SWAP3 ADD SWAP3 ADD SWAP2 SWAP1 PUSH2 0x66E JUMP JUMPDEST SWAP4 SWAP7 SWAP2 SWAP5 SWAP6 PUSH32 0x1000000000000000000000000000000014DEF9DEA2F79CD65812631A5CF5D3ED SWAP7 DUP8 DUP2 LT ISZERO PUSH2 0x7DD JUMPI PUSH2 0x6CB DUP2 DUP8 PUSH2 0x8E4 JUMP JUMPDEST PUSH2 0x6DE PUSH2 0x6D8 DUP12 DUP11 PUSH2 0x8E4 JUMP JUMPDEST DUP5 PUSH2 0x7FF JUMP JUMPDEST DUP2 MLOAD DUP2 MLOAD EQ SWAP2 DUP3 ISZERO SWAP3 PUSH2 0x7EB JUMPI JUMPDEST POP POP PUSH2 0x7DD JUMPI PUSH2 0x6FC SWAP1 DUP4 PUSH2 0x8E4 JUMP JUMPDEST PUSH2 0x70F PUSH2 0x709 DUP11 DUP8 PUSH2 0x8E4 JUMP JUMPDEST DUP6 PUSH2 0x7FF JUMP JUMPDEST DUP2 MLOAD DUP2 MLOAD EQ SWAP2 DUP3 ISZERO SWAP3 PUSH2 0x7C9 JUMPI JUMPDEST POP POP PUSH2 0x7BC JUMPI DUP5 MLOAD SWAP6 PUSH1 0x20 DUP1 SWAP7 ADD MLOAD SWAP5 DUP7 DUP5 MLOAD SWAP5 ADD MLOAD SWAP2 DUP8 DUP2 MLOAD SWAP2 ADD MLOAD SWAP1 DUP9 DUP4 MLOAD SWAP4 ADD MLOAD SWAP4 DUP10 DUP7 MLOAD SWAP7 ADD MLOAD SWAP7 DUP11 DUP10 MLOAD SWAP10 ADD MLOAD SWAP10 PUSH1 0x40 MLOAD SWAP12 DUP13 ADD SWAP13 DUP14 MSTORE PUSH1 0x40 DUP13 ADD MSTORE PUSH1 0x60 DUP12 ADD MSTORE PUSH1 0x80 DUP11 ADD MSTORE PUSH1 0xA0 DUP10 ADD MSTORE PUSH1 0xC0 DUP9 ADD MSTORE PUSH1 0xE0 DUP8 ADD MSTORE PUSH2 0x100 DUP7 ADD MSTORE PUSH2 0x120 DUP6 ADD MSTORE PUSH2 0x140 DUP5 ADD MSTORE PUSH2 0x160 DUP4 ADD MSTORE PUSH2 0x180 SWAP1 DUP2 DUP4 ADD MSTORE DUP2 MSTORE PUSH2 0x1A0 DUP2 ADD DUP2 DUP2 LT PUSH8 0xFFFFFFFFFFFFFFFF DUP3 GT OR PUSH2 0x638 JUMPI PUSH1 0x40 MSTORE MLOAD SWAP1 KECCAK256 MOD EQ SWAP1 JUMP JUMPDEST POP POP POP POP POP POP POP POP PUSH1 0x0 SWAP1 JUMP JUMPDEST PUSH1 0x20 SWAP2 SWAP3 POP DUP2 ADD MLOAD SWAP2 ADD MLOAD EQ ISZERO CODESIZE DUP1 PUSH2 0x71D JUMP JUMPDEST POP POP POP POP POP POP POP POP POP PUSH1 0x0 SWAP1 JUMP JUMPDEST PUSH1 0x20 SWAP2 SWAP3 POP DUP2 ADD MLOAD SWAP2 ADD MLOAD EQ ISZERO CODESIZE DUP1 PUSH2 0x6EC JUMP JUMPDEST SWAP1 PUSH1 0x20 SWAP2 PUSH1 0x40 MLOAD PUSH2 0x80F DUP2 PUSH2 0x61C JUMP JUMPDEST PUSH1 0x0 SWAP4 DUP2 DUP6 DUP1 SWAP4 MSTORE ADD MSTORE PUSH1 0x20 DUP2 MLOAD SWAP2 ADD MLOAD SWAP3 PUSH1 0x20 DUP4 MLOAD SWAP4 ADD MLOAD SWAP2 PUSH1 0x13 PUSH1 0x1 PUSH1 0xFF SHL SUB SWAP3 DUP4 DUP2 DUP8 MULMOD DUP5 DUP7 DUP5 MULMOD DUP6 DUP3 DUP2 DUP4 PUSH32 0x52036CEE2B6FFE738CC740797779E89800700A4D4141D8AB75EB4DCA135978A3 MULMOD MULMOD SWAP1 DUP7 SUB SWAP1 DUP7 DUP3 GT PUSH2 0x8D0 JUMPI DUP1 DUP8 SUB SWAP6 DUP8 DUP8 GT PUSH2 0x8BC JUMPI POP DUP7 DUP1 SWAP6 SWAP5 SWAP3 SWAP4 DUP2 DUP1 SWAP6 PUSH2 0x89C DUP3 PUSH2 0x893 DUP2 DUP1 SWAP9 PUSH1 0x1 ADDMOD PUSH2 0x977 JUMP JUMPDEST SWAP12 PUSH1 0x1 ADDMOD PUSH2 0x977 JUMP JUMPDEST SWAP3 ADDMOD MULMOD SWAP8 PUSH1 0x40 MLOAD SWAP10 PUSH2 0x8AD DUP12 PUSH2 0x61C JUMP JUMPDEST MULMOD SWAP3 MULMOD ADDMOD MULMOD DUP3 MSTORE PUSH1 0x20 DUP3 ADD MSTORE SWAP1 JUMP JUMPDEST PUSH4 0x4E487B71 PUSH1 0xE0 SHL DUP2 MSTORE PUSH1 0x11 PUSH1 0x4 MSTORE PUSH1 0x24 SWAP1 REVERT JUMPDEST PUSH4 0x4E487B71 PUSH1 0xE0 SHL DUP7 MSTORE PUSH1 0x11 PUSH1 0x4 MSTORE PUSH1 0x24 DUP7 REVERT JUMPDEST SWAP1 PUSH1 0x0 PUSH1 0x20 PUSH1 0x40 MLOAD PUSH2 0x8F5 DUP2 PUSH2 0x61C JUMP JUMPDEST DUP3 DUP2 MSTORE ADD MSTORE DUP1 ISZERO PUSH2 0x95B JUMPI PUSH1 0x40 MLOAD PUSH2 0x90C DUP2 PUSH2 0x61C JUMP JUMPDEST PUSH1 0x0 DUP2 MSTORE DUP2 PUSH1 0x1 SWAP2 DUP3 PUSH1 0x20 DUP3 ADD MSTORE SWAP4 SWAP1 JUMPDEST PUSH2 0x927 JUMPI POP POP POP SWAP1 JUMP JUMPDEST DUP2 DUP1 DUP5 AND EQ PUSH2 0x945 JUMPI JUMPDEST DUP1 PUSH2 0x93B SWAP2 PUSH2 0x7FF JUMP JUMPDEST SWAP2 DUP2 SHR SWAP2 DUP3 PUSH2 0x91D JUMP JUMPDEST SWAP3 PUSH2 0x953 DUP5 PUSH2 0x93B SWAP3 PUSH2 0x7FF JUMP JUMPDEST SWAP4 SWAP1 POP PUSH2 0x931 JUMP JUMPDEST POP POP PUSH1 0x40 MLOAD PUSH2 0x969 DUP2 PUSH2 0x61C JUMP JUMPDEST PUSH1 0x0 DUP2 MSTORE PUSH1 0x1 PUSH1 0x20 DUP3 ADD MSTORE SWAP1 JUMP JUMPDEST PUSH1 0x15 PUSH1 0x1 PUSH1 0xFF SHL SUB SWAP1 PUSH1 0x1 SWAP1 PUSH1 0x13 PUSH1 0x1 PUSH1 0xFF SHL SUB SWAP1 DUP2 SWAP1 MOD DUP3 DUP5 JUMPDEST PUSH2 0x99E JUMPI POP POP POP SWAP1 POP SWAP1 JUMP JUMPDEST DUP1 DUP1 DUP7 AND EQ PUSH2 0x9BC JUMPI JUMPDEST DUP3 SWAP4 SWAP5 DUP2 SHR SWAP3 DUP3 DUP5 SWAP4 MULMOD SWAP3 SWAP5 SWAP4 SWAP3 SWAP2 PUSH2 0x992 JUMP JUMPDEST DUP3 DUP3 DUP2 SWAP6 MULMOD SWAP4 POP PUSH2 0x9A8 JUMP INVALID LOG2 PUSH5 0x6970667358 0x22 SLT KECCAK256 DUP8 0xD6 0xD 0xD0 SWAP4 STATICCALL STOP DUP13 0xF7 0xD1 SWAP15 0xC3 0x29 0xFB RETURN 0x1E 0xD6 0xE0 0x28 PUSH4 0xD12C9B02 0xE5 PUSH14 0xD112D0F6FDA64736F6C63430008 EQ STOP CALLER "},"methodIdentifiers":{"isOutputUsed(bytes32)":"a43c69db","usedOutputs(bytes32)":"e0d5b8cc","verifier()":"2b7ac3f3","verifyAndMint(uint256[8],uint256[6],(uint256,uint256,uint256,uint256,uint256,uint256),(uint256,uint256,uint256,uint256,uint256,uint256,uint256))":"0e68e5ce"}}}}}