{"contracts/PlonkVerifier.sol":{"PlonkVerifier":{"abi":[{"inputs":[{"internalType":"uint256[24]","name":"_proof","type":"uint256[24]"},{"internalType":"uint256[70]","name":"_pubSignals","type":"uint256[70]"}],"name":"verifyProof","outputs":[{"internalType":"bool","name":"","type":"bool"}],"stateMutability":"view","type":"function"}],"evm":{"bytecode":{"linkReferences":{},"object":"60808060405234610016576133ce908161001c8239f35b600080fdfe600436101561000d57600080fd5b6000803560e01c63b36ccadc1461002357600080fd5b3461092357610bc03660031901126109235736610304116109235736610bc41161092357610c6060405261005961024435610a0e565b61006561026435610a0e565b61007161028435610a0e565b61007d6102a435610a0e565b6100896102c435610a0e565b6100956102e435610a0e565b6040517f0c739a90a4c08ede904b4005bb29727f6f47e86ffe9f4b0ad8d91b7293f691778152602081017f0a559483250bf77c5029a9be97616f1776b12b61d45fc30fe6577bd956cc9c579052604081017f26b6cd7727d0e2ea9b831a4df456879b7a4787927770625b91572f8456698cdd9052606081017f0f2ae08938010a69fc2ff8fc3973ac0cddb80e838afed52de963d0098fd884d29052608081017f2a69a88c4b674e5d918b7d26d134ff6cffbb1723104891e5558a34d110703b2c905260a081017f099cafb81bf75cb3b3b8043cc4a879a4395d7c21e68fe264a9a6fae0bb2e0731905260c081017f155e43437cabe7380a36dad36e811d82db73c35427d3b31b2f66a9c08cb8fe89905260e081017f2a4d0a2f38844c678569ebfa8f7efa6a35fb6bf6b462eb48360859efe64536c6905261010081017f2d6ae14ca6e1e55e808ad564dc250451c8f3bb839fb5b975d39496c9a91ec102905261012081017f076832dd56494dd4c64e39691e8822401679b6a91527bc8c85803a1dc86fdebb905261014081017f2e5ef81c197058f5dc62b9f3ead75813bd9db12098dea5b0c4d1d7aa091b4d39905261016081017f13bdc30c7f44781fe99c2834cd947c0367f5b88a250d74c20428fcaed40bbac0905261018081017f15b76fed0ac8f1d6e459da90be39d050e389c9945debfedf26a9af1ace4f51c290526101a081017f1061f6f6e767cb48b7f745a7be53721de0964d6a7c35559bb8abdcc155d82f6e90526101c081017f1c435f833d6b71739e0d200d27dca10160533269d4550a1042d02ac034b9a69090526101e081017f20393615f5c7e74249fb870fee140e74f3e47681d425cc2ef69416de40f27558905261030435610200820152610324356102208201526103443561024082015261036435610260820152610384356102808201526103a4356102a08201526103c4356102c08201526103e4356102e082015261040435610300820152610424356103208201526104443561034082015261046435610360820152610484356103808201526104a4356103a08201526104c4356103c08201526104e4356103e082015261050435610400820152610524356104208201526105443561044082015261056435610460820152610584356104808201526105a4356104a08201526105c4356104c08201526105e4356104e082015261060435610500820152610624356105208201526106443561054082015261066435610560820152610684356105808201526106a4356105a08201526106c4356105c08201526106e4356105e082015261070435610600820152610724356106208201526107443561064082015261076435610660820152610784356106808201526107a4356106a08201526107c4356106c08201526107e4356106e082015261080435610700820152610824356107208201526108443561074082015261086435610760820152610884356107808201526108a4356107a08201526108c4356107c08201526108e4356107e082015261090435610800820152610924356108208201526109443561084082015261096435610860820152610984356108808201526109a4356108a08201526109c4356108c08201526109e4356108e0820152610a0435610900820152610a2435610920820152610a4435610940820152610a6435610960820152610a8435610980820152610aa4356109a0820152610ac4356109c0820152610ae4356109e0820152610b0435610a00820152610b2435610a20820152610b4435610a40820152610b6435610a60820152610b8435610a80820152610ba435610aa0820152600435610ac0820152602435610ae0820152604435610b00820152606435610b20820152608435610b4082015260a435610b60820152610b80812060008051602061337983398151915290068060a052602060a020600080516020613379833981519152900660c05280825260c051602083015260c435604083015260e4356060830152608082206000805160206133798339815191529006806080526000805160206133798339815191528180096103405282526101043560208301526101243560408301526101443560608301526101643560808301526101843560a08301526101a43560c083015260e0822060008051602061337983398151915290068060e0528083526102443560208401526102643560408401526102843560608401526102a43560808401526102c43560a08401526102e43560c084015260e0832060008051602061337983398151915290069181836101405260008051602061337983398151915291096101205280600080516020613379833981519152910980600080516020613379833981519152910980600080516020613379833981519152910980600080516020613379833981519152910980600080516020613379833981519152910980600080516020613379833981519152910980600080516020613379833981519152910980600080516020613379833981519152910980600080516020613379833981519152910980600080516020613379833981519152910980600080516020613379833981519152910980600080516020613379833981519152910980610100527f30644e72e131a029b85045b68181585d2833e84879b9709143e1f593f00000000160008051602061337983398151915290068061036052610380526000805160206133798339815191528180098181610160526000805160206133798339815191529109818161018052600080516020613379833981519152910990816101a05260008051602061337983398151915291096101c0526101c43581526101e43560208201526102043560408201526102243560608201526080902060008051602061337983398151915290066101e0526108ec610a2f565b6108f4612358565b6108fc6127cd565b610904612d04565b61090c612ef4565b610914612fd4565b61091c613131565b8152602090f35b80fd5b600060019160008051602061337983398151915290805b61096f575060019192501161096a57600081126109575790565b6000805160206133798339815191520190565b600080fd5b8082058481029093039392909190820290038061093d565b604051610380516103a0905b610c6082106109e7576109a590610926565b91601f19918201919081015b61038083116109bf57505052565b81809160008051602061337983398151915280825188099686519009958552019201916109b1565b80600080516020613379833981519152918493945283519009906020809101920190610993565b6000805160206133798339815191521115610a2557565b6000805260206000f35b600080516020613379833981519152807f1f5912838f01a9db572cd61d1ffca58d5577bbae517f718dbc00bfb77c49078460e05182807f30644e72e131a029b85045b68181585d2833e84879b9709143e1f593f0000000830106611000096103a05282807f273278dc0301cf1ab67275428426c7b3b1427e810ab5d4d8279a8021efbd2bc7830106611000096103c05282807f2dea18ee476c9bfe044dc5dedc4bfaeb6f72bc3105247fc673d79c9a7965d11f830106611000096103e05282807f2f0e732b960386256ff5476b0fe98f3aeb3f017320a2485460b0060489fd7a89830106611000096104005282807f296734b17119fc08cc91898ad0f9e679ee796e87d0e698e631e85fb233d1a6ef830106611000096104205282807f097d2d234ba4772c752f7262e71e05ad7bb6daa27f0222ee227a4f7c7f80532d830106611000096104405282807f12eead87ab9d649a8e7bb9350a23d769f52b66953f101a05e7b1a5611bb8c063830106611000096104605282807f2185c84d03f0ceb116d14b6007c4546cf900de4c0625bcd3b701598571513ade830106611000096104805282807f21466153ea4a70cdb89019a7a3e651e74003be067d41431bbaa775f2a8fea833830106611000096104a05282807f1d75bdd0718fb47a00397a029280a39afeb21a594f1a08b878ac9752fc6b53a5830106611000096104c05282807f070c5f05a668b3398867614e95fdbfbfdd1ba7d4876b4931262159382bd39dbc830106611000096104e05282807f0af4572d0afe5fe1412c7ca6b1b019aaec65d4b6f5fb65d9dd938309093bfac5830106611000096105005282807f0beb5e960ef05f7426f8e9a191f200d0289ec9bc830c975b39e020e39a1c39ad830106611000096105205282807efadda1bdb2b06caab63923f2e07b9174726aade727eaa517ebbad0260a818e830106611000096105405282807f06bcda193c5474ac5fe6b5f74524881525509376a7361c2d447d551eb317c82f830106611000096105605282807f0f40c30277d5052dea5d795749f1e7a1ee2b534339ac64067aa9ca7147f975e7830106611000096105805282807f28b389113b1d1c24c7ca256be24a58acc6baa5f412687e607b4e94027b5a858b830106611000096105a05282807f171f38e9be9d7c94c674ed1bc8e0b3e794481655a07a39f49b7d627962ad5cdf830106611000096105c05282807f19a751be229dd99d826d4959f55737f4d56458062852cd7339c933013ea9bab6830106611000096105e05282807e3c17f5e8907b841c1089a549c7a9d6e43e4b66c4cce12fa221e2df39cca15d830106611000096106005282807f272573c088d418d490fd0c627cd70f2bf77806766c726200edba92865506e6b7830106611000096106205282807f1222f380031a264f9c82dcab8f471ca673ca0bb0511ae6887386fcce73df5836830106611000096106405282807f13ddf80a011cab301dc85b3c5cd19b77c1356871de735cc36a7ff3f12d55b5ff830106611000096106605282807f20fba161f79db17d8cea550296a44ae718a45cebb5ea1ac2fb6859d924497174830106611000096106805282807f1e03a8e524e06bf8e83a3df1b756ed83939d3db6e60ff73ba633d4cb4b490592830106611000096106a05282807f291501f354de0fad242103650e09f95f3e1a9e0d04f70ef0edc00e96cad73a32830106611000096106c05282807f14ff1cbde7180444c6cf15a4f7090659bb50743ed0404cfa5d1db2ae3e57e9b1830106611000096106e05282807f2327845130cdbbd1a1d54f6f499a989a71116dd4e3eff9cf0646bb12f238b99c830106611000096107005282807f20dea1744e4ad8e9b328811ca5cd294a3f8ba4c9d71a249f06c5bd52890a8b6c830106611000096107205282807f1e2c9cfa2f4647152f97a69a014549fe406fcd76ba9f9b2d809fb7bdf9f9ea6a830106611000096107405282807f03415057c9f054d3c9360c4a764d39a1d9af37d42622a5e38dc45f29a45103a3830106611000096107605282807f04522e838edeaf76e13dea88a1de5225d4d21e24a8f31c217828cac4a2957a56830106611000096107805282807f197d107534009697d8f364199928147d0a6892e3c2c72417a6d3ae873562e7f0830106611000096107a05282807f190338a01581b460693a0c0e1c7a66b93d363659a2672c938bcad0b2e35e6dad830106611000096107c05282807f2f24b56eedd4fff326360a90472ad03468d0715b019cf44f410f5555093c2d65830106611000096107e05282807f1ab69c7e115cb4b5ddb8fe53580dba57478331f7276ba86cc3a48c1589d8bfcb830106611000096108005282807f1fbfe4a677f32a14423da30a25e83c868e0297c1b177103171641d57670afd30830106611000096108205282807f0eeb19098b3df11c1fbf20d34bd18356d9ff29fa1bef6479407bb7f094b07f2c830106611000096108405282807f18221fb3b961db5c3eca9ec6d7f4740d3ca7311f45becfe93690acc1370ffd06830106611000096108605282807f3029c14367abdf272c8711ff32b2534d933adf6f146f0cdaee146a4ecfd87aa7830106611000096108805282807f0558c1b32b0a3cb3b42684bc946257994b8708a9b61a3ed8edecae9bccffb440830106611000096108a05282807f12b904e5d7dc06b54af6e053f1387bd4ba831e35bd4e32ad0be25470c82aea4f830106611000096108c05282807f0fc0f26e7571b07d3e069c7b4279ce1400fadc221ab3a9afa3cd539e68b4a56e830106611000096108e05282807f1bb89cfca8a2552c9c299dd2beabc0a61e9a881d514684370e99db6fd420b365830106611000096109005282807f21212a9bd86d52758fe4d28a6f33d1e1594644fd3d6ffae4cfba93302b96472c830106611000096109205282807f09a350961498d17ffd9ce42c0defc9a84ae91f1048533f2f41e10176d02f07ad830106611000096109405282807f294e4dc5090561248a98d6416bc3a443b28badf308f3ce80a61fc378fb2829a1830106611000096109605282807f1076381b931341027112fdfa81ff24204203e09c56f34fdeb2a361d55f43cd61830106611000096109805282807f289781269ee85498875da00dbcbd84300cabf163be600727dd69a7d3762d574d830106611000096109a05282807f1838a5a6094cf464d97895c7dd7653a057322efdf1f3ed007c81ba2d72ceaea8830106611000096109c05282807f0348db597fe96c33eef2db5ddf0dd75fc7c8e15e47a003219ed7020280dc71be830106611000096109e05282807f1759226e9ccc2deae55a2ab93a5bf93d6ed533575b924a256666eda096d18b8a83010661100009610a005282807f0bcea208031fc00503f959c232271bede00c00c208c525608dbb770b283d18ad83010661100009610a205282807f2577483a072cb9ee56e70fe30f3972e1e6969a9c77a88b2557128b8097f6766183010661100009610a405282807f0eb88ee9c76f3c4757e51b3d1e2beaf8af14b3637d2331a5f9609b43959b3e6183010661100009610a605282807f2fad09d0cad58e91ad927744ccfeaddd3db816e25ba94a85c647a5cbeb8a032583010661100009610a805282807f301ecb6f813d5f31725c635bf897a9101aaab66fe034e201294a84802868b8bc83010661100009610aa05282807f16da9b1d020b6155e0b771c688208b6b0bd00a745cfa42940a7a87eee570264083010661100009610ac05282807e31b38f45d4dbdd1052e96525e820646dce03dc54fff9a1ed2138835cf021cd83010661100009610ae05282807f1918ff7ec17699f49d5d436f12d114a5c3012601f0af21f71d824a3fc432c49a83010661100009610b005282807f0d07dddb4de9fe554914398a44c143c4185090a525fd38fbef49c4688e049f3e83010661100009610b205282807f186db40c7de025a7e21a2299bba796aeb74adb265e07fdde0e8fa8d22bef498a83010661100009610b405282807f02806dd6a143b9eb7c7c9f0483d8db708e361d1ed6dc133acda9d6392413f8ca83010661100009610b605282807f2b90f142cfffd0bb89ec861da13ee8b351989ccb2f99733cf8287e00e7ddc4e283010661100009610b805282807f1c4c3a258629905ef6036a4037c3aa6ae18d1d2452d64bd2684cfa8ede70fdc783010661100009610ba05282807f07860ac423eb675b0f58b6a7bb29fcb5685c6e9a41787999198db2f9d055050083010661100009610bc05282807ef21103ef0266d640799f130cbe2e573a267e2ee8818f6cdbeddccbea14e85b83010661100009610be05282807f040f355b7ad8d1226e0e4ec2ef5685be07a702b62eaea51cbd2ded2663b8d9cc83010661100009610c005282807f020874c590d6ef16edd82bfb32a594615bb73f42f510afec6ddd7fd9bd280a3483010661100009610c2052010661100009610c40526116d7610987565b600080516020613379833981519152806103605181816103a051096103a0528180826103c051097f0931d596de2fd10f01ddd073fd5a90a976f169c76f039bb91c4775720042d43a096103c0528180826103e051097f027a358499c5042bb4027fd7a5355d71b8c12c177494f0cad00a58f9769a2ee2096103e05281808261040051097f0155db474b2e1a04485afe4b7197c9223cf4e6d55917283ce331ef8f66028578096104005281808261042051097f06fd19c17017a420ebbebc2bb08771e339ba79c0a8d2d7ab11f995e1bc2e5912096104205281808261044051097f26e7214f958d28fd4320d3539a6352afac7d0da5fab74da32167a617707facd4096104405281808261046051097f1d75a0eb35943b8f29d48c81775d80f3330881b33aa9568b5c305032d4473f9e096104605281808261048051097f0ede8625dd40d178a17efa5679bd03f02f3309fc7393b3bd8ce09c0e7eaec52309610480528180826104a051097f0f1ded1ef6e72f5bffc02c0edd9b0675e8302a41fc782d75893a7fa1470157ce096104a0528180826104c051097f12ee90a26fa1ebafb816cbb3ef00b4c22981cdef2a9f67d8cb355e40f394ac5c096104c0528180826104e051097f2957ef6d3ac8ecf02fe8e467eb83989d4b184073f24e27601dc09c5bc42c6245096104e05281808261050051097f256ff745d63340487723c90fcfd13eb23bce139183be0ab7664e728ae6c4053c096105005281808261052051097f2478efdcd24140b591575c14ef8f578cff951e8bf6acd9360a01d4b055e3c654096105205281808261054051097f2f6970d1237eefbd0d9a0c928ea0dccbb3c17d9a929185ec2bf63ac3c9f57e73096105405281808261056051097f29a77459a4dd2b7d58698fbf3c5cd04802e354d1d2835463ff64a0753ce837d2096105605281808261058051097f21238b70695c9afbcdf2cc5f378f70bb3a089505400d0c8ac9382b22a8068a1a09610580528180826105a051097f07b0c561a6148404f086204a9f36ffb0617942546750f230c893619174a57a76096105a0528180826105c051097f1945158922942394f1db589ab8a0a47593ebd1f2d93f369ca864931a8d52a322096105c0528180826105e051097f16bcfcb4be93c68c35e2fc5c8c2a206852cf90425166a31e0a18c292b156454b096105e05281808261060051097f3028367cf8a124a59c3fbc1137b9ae8643f59ce1b4ec8f61a1c012b4b6335ea4096106005281808261062051097f093edab2585d87552753395404aa493130bbe1d20d470e905627630d9af9194a096106205281808261064051097f1e415af2de1779da1bcd690af23a3bb6b469dc98289e8a08d05af8c57c20a7cb096106405281808261066051097f1c865668e014f4f99a87ea7a24afbce566fe7fd69b4613cdd96201a2c2aa4a02096106605281808261068051097f0f68ad10e993eeac2b65f0b3eadd0d760f8f8b5cc3cf55ce48799bbacbb68e8d09610680528180826106a051097f1260a58dbc513430d01607c4ca2a6ad99496aa9193a979559dae20c8a4b6fa6f096106a0528180826106c051097f074f4c7f8c53907c942f425173775efdea194a3b74c261a05621e6fd2528c5cf096106c0528180826106e051097f1b6531b4fa199be4f18130118a7852036ce37409a9792396e6c442e5b1a81650096106e05281808261070051097f0d3cca21b063e458167af64737e6bfc2b7227a7395c976c23d9b3a80fdc74665096107005281808261072051097f0f85acfe92e6c7400527c499dbb42f12e8a8437ea29f4bf23d1c384166f57495096107205281808261074051097f1237b178b1eb591488b89f1c803c0e5ee7c41ad1bf19d563c3423dd5f6061597096107405281808261076051097f2d22fe1b17414b55ef1a396c0b341ebb4e84b0745396caadb61d966a4baefc5e096107605281808261078051097f2c121fef5252f0b2d7125b2ddfa306375361ca23d0c6546fcbb92acf4d6a85ab09610780528180826107a051097f16e73dfdad310991df5ce19ce85943e01dcb5564b6f24c799d0e470cba9d1811096107a0528180826107c051097f176115d2cbafebc94f1639a86506f1a3eafdb1eed75243fdb81724e10ca19254096107c0528180826107e051097f013f9903f35ca036921a3b263a568828bf6376ed781c7c4202d2a03ee6c3d29c096107e05281808261080051097f15adb1f4cfd4eb73da97476329739e05e0b0b651524dc824803d697e66274036096108005281808261082051097f10a469cc693e76157612a2ac5b991bd69a315086c842605fd27dd83c88f502d1096108205281808261084051097f2179356955f3af0d989124e335afd5064e34be4e5dca0c1803663da35b4f80d5096108405281808261086051097f18422ebf27cfc4cd7985a6efa98ce44feb8cb72933faa0a80d5148d2b8f002fb096108605281808261088051097e3a8d2f7985c1028bc933b74ecf050f94f908d9654a63b655cd8b452027855a09610880528180826108a051097f2b0b8cbfb62763760429c0f9ed1f00c3dcacdf9ec39f31b855f546f823004bc1096108a0528180826108c051097f1dab498d095599746d5965629048dc886db0ca12bc6b3de437ffa12327d515b2096108c0528180826108e051097f20a35c046bbfefac7a49a93b3f078a4927390c265f05c6e1a014a1f5874b5a93096108e05281808261090051097f14abb176388f4afd1c26a7e3c2d597b70999602b2872ec5a35481a241bdf4c9c096109005281808261092051097f0f4323d708c44db4286b732c124d867bceeda34b3c4975ac74276263c469b8d5096109205281808261094051097f26c0fddccc98cea9bab3618a73918eb4dd4ac938316631620200f41d1fd0f854096109405281808261096051097f071600add82c3f052db76f7515bdb41975a83a5570c5a2109dc2321af4d7d660096109605281808261098051097f1fee16574e1e5f27473d47bbff82343ce63007ac22c620b2913e93be90bc32a009610980528180826109a051097f07cccd4c42494b9130f2a5a8c4c3d42d1b87f6e4bb59696966784dc079d2a8b4096109a0528180826109c051097f182ba8ccd7e4abc4ded7afeea40b04bcd101b94a87c58390c7603b667d315159096109c0528180826109e051097f2d1b7319614833f5c95d6a58a27380fd606b06ea32196d6fa50af3916f238e43096109e052818082610a0051097f190b2c044465723ed2f61afd47255f1fb95eb4f11e27266bdd7b07f3592e747709610a0052818082610a2051097f2495ac6ade11e024b456ebf44f5a3c6f4827e78670f44b30b6267e88c7c2e75409610a2052818082610a4051097f0aed0638da04e63b616935d37247e57b419d4dac0210e56beccf6a13580989a009610a4052818082610a6051097f21abbf8919c263e2606b2a7963556d64791f34e4fc963eeb4a815a505a64c1a009610a6052818082610a8051097eb744a2165c11980abdce71b482aa7fea7bd1661e10260b7d9a4fc80475fcdc09610a8052818082610aa051097e4583035ff440f845f3e25a88e9af4d0d8931d899848e901a977113c797474509610aa052818082610ac051097f1989b355df263ed3d798d3eff960ccf21c63ddd41cbf2dfd39676da50a8fd9c109610ac052818082610ae051097f30329ae39b5cc44ca7fd5c515b9937f8ba65e46c24b976ef56c0bd10930fde3409610ae052818082610b0051097f174b4ef41fbb06351af302476eb043b76532c246890a4e9a265fab542bcd3b6709610b0052818082610b2051097f235c70979347a1d46f3c0c2c3cc014990fe357a353bc37955498312b61fb60c309610b2052818082610b4051097f17f69a6663517a81d636231cc5d9c1ae70e90d221bb172b335524cc1c410b67709610b4052818082610b6051097f2de3e09c3fede63e3bd3a6b1fda87cec99fdcb29a2dd5d5676381f5acbec073709610b6052818082610b8051097f04d35d301131cf6e2e63bf98e0426fa9d69b4b7d4a1ffd544bb9779308223b1f09610b8052818082610ba051097f1418144d5b080fcac24cdb7649bdadf246a6cb2426e324bedb94fb05118f023a09610ba052818082610bc051097f28de43aebd4638cea8f78f0ec6575ba7bfd779ae3840f6f82a54429a1faafb0109610bc052818082610be051097f2f723d6ef22f395377d6a6a374c32a05ee0d6a199137e12467f418c805eb17a609610be052818082610c0051097f2c5519176658cf074a41f6f3922ad29f208ce5924b0acb7486b4086d8c47263509610c0052818082610c2051097f2e5bd9ad505ab112ca7819bb4edbc3fbcc7ca90584a8c0a4d60475ba32d7f5cd09610c2052610c4051097f110b3bef522ff64e61236f996184b2cfd2bc2c9a2839ff0387e135dc73b6f87d09610c4052565b6000805160206133798339815191528080808080808080808080808080808080808080808080808080808080808080808080808080808080808080808080808080808080808080808080808080808080808080808080808080808080808080808080808080808080808080808080808080808080808080808080808080808080808080808080808080808080808080808080808080808080808080610304356103a05109600003010681610324356103c051099003010681610344356103e051099003010681610364356104005109900301068161038435610420510990030106816103a435610440510990030106816103c435610460510990030106816103e43561048051099003010681610404356104a051099003010681610424356104c051099003010681610444356104e051099003010681610464356105005109900301068161048435610520510990030106816104a435610540510990030106816104c435610560510990030106816104e43561058051099003010681610504356105a051099003010681610524356105c051099003010681610544356105e051099003010681610564356106005109900301068161058435610620510990030106816105a435610640510990030106816105c435610660510990030106816105e43561068051099003010681610604356106a051099003010681610624356106c051099003010681610644356106e051099003010681610664356107005109900301068161068435610720510990030106816106a435610740510990030106816106c435610760510990030106816106e43561078051099003010681610704356107a051099003010681610724356107c051099003010681610744356107e051099003010681610764356108005109900301068161078435610820510990030106816107a435610840510990030106816107c435610860510990030106816107e43561088051099003010681610804356108a051099003010681610824356108c051099003010681610844356108e051099003010681610864356109005109900301068161088435610920510990030106816108a435610940510990030106816108c435610960510990030106816108e43561098051099003010681610904356109a051099003010681610924356109c051099003010681610944356109e05109900301068161096435610a005109900301068161098435610a20510990030106816109a435610a40510990030106816109c435610a60510990030106816109e435610a8051099003010681610a0435610aa051099003010681610a2435610ac051099003010681610a4435610ae051099003010681610a6435610b0051099003010681610a8435610b2051099003010681610aa435610b4051099003010681610ac435610b6051099003010681610ae435610b8051099003010681610b0435610ba051099003010681610b2435610bc051099003010681610b4435610be051099003010681610b6435610c0051099003010681610b8435610c2051099003010681610ba435610c4051099003010661020052565b61020051600080516020613379833981519152908180610340516103a051099181808060a0518160c051918160805193816102e435938180846102843508938180808381806102c4358909610264350808946102a4359009610244350808090909098103069381030690080861022052565b604090608082516020610240938451835261026051828401528051868401520151606082015260066107cf195a01fa15610a2557565b60409060808251825181526020830151602082015261028051848201526102a051606082015260066107cf195a01fa15610a2557565b6040906080825182518152602083015160208201526102c051848201526102e051606082015260066107cf195a01fa15610a2557565b608060409260208451918451835281850151828401528051868401520151606082015260066107cf195a01fa15610a2557565b604051907f0c739a90a4c08ede904b4005bb29727f6f47e86ffe9f4b0ad8d91b7293f6917782527f0a559483250bf77c5029a9be97616f1776b12b61d45fc30fe6577bd956cc9c576020830152604082019081526107cf196040836060816007855a01fa15610a2557604092600660809261024094855190526102605160608401525a01fa15610a2557565b604051907f26b6cd7727d0e2ea9b831a4df456879b7a4787927770625b91572f8456698cdd82527f0f2ae08938010a69fc2ff8fc3973ac0cddb80e838afed52de963d0098fd884d26020830152604082019081526107cf196040836060816007855a01fa15610a2557604092600660809261024094855190526102605160608401525a01fa15610a2557565b604051907f2a69a88c4b674e5d918b7d26d134ff6cffbb1723104891e5558a34d110703b2c82527f099cafb81bf75cb3b3b8043cc4a879a4395d7c21e68fe264a9a6fae0bb2e07316020830152604082019081526107cf196040836060816007855a01fa15610a2557604092600660809261024094855190526102605160608401525a01fa15610a2557565b604051907f155e43437cabe7380a36dad36e811d82db73c35427d3b31b2f66a9c08cb8fe8982527f2a4d0a2f38844c678569ebfa8f7efa6a35fb6bf6b462eb48360859efe64536c66020830152604082019081526107cf196040836060816007855a01fa15610a2557604092600660809261024094855190526102605160608401525a01fa15610a2557565b604051907f15b76fed0ac8f1d6e459da90be39d050e389c9945debfedf26a9af1ace4f51c282527f1061f6f6e767cb48b7f745a7be53721de0964d6a7c35559bb8abdcc155d82f6e6020830152604082019081526107cf196040836060816007855a01fa15610a2557604092600660809261028094855190526102a05160608401525a01fa15610a2557565b91906040519283526020830152604082019081526107cf196040836060816007855a01fa15610a2557604092600660809261028094855190526102a05160608401525a01fa15610a2557565b916040519182526020820152604081019283526107cf19906040816060816007865a01fa15610a2557600660809260409585519052602085015160608401525a01fa15610a2557565b60606040928351907f1c435f833d6b71739e0d200d27dca10160533269d4550a1042d02ac034b9a69082527f20393615f5c7e74249fb870fee140e74f3e47681d425cc2ef69416de40f2755860208301528482015260076107cf195a01fa15610a2557565b9190604093606092855192835260208301528482015260076107cf195a01fa15610a2557565b60208201519151612d02939291612cca565b565b612d0260c051612eef60405191612eef61010093848101604052612d6d7f2d6ae14ca6e1e55e808ad564dc250451c8f3bb839fb5b975d39496c9a91ec102610240527f076832dd56494dd4c64e39691e8822401679b6a91527bc8c85803a1dc86fdebb61026052565b612e9f600080516020613379833981519152612d9181610264356102443509612914565b612d9d610244356129a0565b612da961026435612a2c565b612db561028435612ab8565b612e1f6101205182608051918180610340516103a051098160c08a0195612de58760c4358152602060e435910152565b818d816101e05197818084818060038609610284350808938180828180600288096102643508089361024435080809090908089085612cf0565b612e618160a05181806102e435818460805109099181604089019a8180808381806102c4358909610264350808946102a4359009610244350808090986612c65565b6080830196612e7b88610104358152602061012435910152565b612e8e815161016435610144358b612c1c565b5180096101a4356101843588612c1c565b61036051612eb560a08301918251885189612cca565b606082017f30644e72e131a029b85045b68181585d97816a916871ca8d3c208c16d87cfd479081815181030690528151810306905261283f565b61283f565b6102405161028090815261026051906102a0918252612f1b61014051602435600435612bd0565b612f2d61016051606435604435612bd0565b612f3f6101805160a435608435612bd0565b6101a051916040517f2e5ef81c197058f5dc62b9f3ead75813bd9db12098dea5b0c4d1d7aa091b4d3981527f13bdc30c7f44781fe99c2834cd947c0367f5b88a250d74c20428fcaed40bbac06020820152604081019384526107cf19936040826060816007895a01fa15610a2557604094608093600692865190525160608401525a01fa15610a2557612d026101c051612b44565b610220516000805160206133798339815191520360008051602061337983398151915290066101405161016051610180516101a051916101c051936101e05195604051966001885260208801600290526102e43590600080516020613379833981519152910995600080516020613379833981519152906102c4350994600080516020613379833981519152906102a43509936000805160206133798339815191529061028435099260008051602061337983398151915290610264350991600080516020613379833981519152906102443509600080516020613379833981519152910890600080516020613379833981519152910890600080516020613379833981519152910890600080516020613379833981519152910890600080516020613379833981519152910890600080516020613379833981519152910860408201526107cf195a01606060409260076102c093fa15610a2557565b60405161024081016040526020816101806132cc8183016101c084016132b3610200860161316a846101c435815260206101e435910152565b6102043583526102243560208401526132ad6101e09361318c8551828b612cf0565b613196868a6128e1565b898901947f30644e72e131a029b85045b68181585d97816a916871ca8d3c208c16d87cfd479586815181030690527f26186a2d65ee4d2f9c9a5b91f86597d35f192cd120caf7e935d8443d1938e23d60408b01527f30441fd1b5d3370482c42152a8899027716989a6996c2535bc9f7fee8aaef79e60608b01527f1970ea81dd6992adfbc571effb03503adbbb6a857f578403c6c40e22d65b3c0260808b01527f054793348f12c0cf5622c340573cb277586319de359ab9389778f689786b1e4860a08b015261326d60e05160c08c019889612cf0565b7f0931d596de2fd10f01ddd073fd5a90a976f169c76f039bb91c4775720042d43a600080516020613379833981519152809260e051905109099083612cf0565b836128e1565b6132bc82612875565b6102e090815181030690526128ab565b7f198e9393920d483a7260bfb731fb5d25f1aa493335a9e71297e485b7aef312c26101008301527f1800deef121f1e76426a00665e5c4479674322d4f75edadd46debd5cd992f6ed6101208301527f090689d0585ff075ec9e99ad690c3395bc4b313370b38ef355acdadcd122975b6101408301527f12c85ea5db8c6deb4aab71808dcb408fe3d1e7690c43d37b4ce6cc0166fa7daa6101608301528160086107cf195a01fa9051169056fe30644e72e131a029b85045b68181585d2833e84879b9709143e1f593f0000001a26469706673582212203e22c92ad59c0217aefeaf54dea9ffbd9cfc54f404d568b80fa78e29e031925f64736f6c63430008140033","opcodes":"PUSH1 0x80 DUP1 PUSH1 0x40 MSTORE CALLVALUE PUSH2 0x16 JUMPI PUSH2 0x33CE SWAP1 DUP2 PUSH2 0x1C DUP3 CODECOPY RETURN JUMPDEST PUSH1 0x0 DUP1 REVERT INVALID PUSH1 0x4 CALLDATASIZE LT ISZERO PUSH2 0xD JUMPI PUSH1 0x0 DUP1 REVERT JUMPDEST PUSH1 0x0 DUP1 CALLDATALOAD PUSH1 0xE0 SHR PUSH4 0xB36CCADC EQ PUSH2 0x23 JUMPI PUSH1 0x0 DUP1 REVERT JUMPDEST CALLVALUE PUSH2 0x923 JUMPI PUSH2 0xBC0 CALLDATASIZE PUSH1 0x3 NOT ADD SLT PUSH2 0x923 JUMPI CALLDATASIZE PUSH2 0x304 GT PUSH2 0x923 JUMPI CALLDATASIZE PUSH2 0xBC4 GT PUSH2 0x923 JUMPI PUSH2 0xC60 PUSH1 0x40 MSTORE PUSH2 0x59 PUSH2 0x244 CALLDATALOAD PUSH2 0xA0E JUMP JUMPDEST PUSH2 0x65 PUSH2 0x264 CALLDATALOAD PUSH2 0xA0E JUMP JUMPDEST PUSH2 0x71 PUSH2 0x284 CALLDATALOAD PUSH2 0xA0E JUMP JUMPDEST PUSH2 0x7D PUSH2 0x2A4 CALLDATALOAD PUSH2 0xA0E JUMP JUMPDEST PUSH2 0x89 PUSH2 0x2C4 CALLDATALOAD PUSH2 0xA0E JUMP JUMPDEST PUSH2 0x95 PUSH2 0x2E4 CALLDATALOAD PUSH2 0xA0E JUMP JUMPDEST PUSH1 0x40 MLOAD PUSH32 0xC739A90A4C08EDE904B4005BB29727F6F47E86FFE9F4B0AD8D91B7293F69177 DUP2 MSTORE PUSH1 0x20 DUP2 ADD PUSH32 0xA559483250BF77C5029A9BE97616F1776B12B61D45FC30FE6577BD956CC9C57 SWAP1 MSTORE PUSH1 0x40 DUP2 ADD PUSH32 0x26B6CD7727D0E2EA9B831A4DF456879B7A4787927770625B91572F8456698CDD SWAP1 MSTORE PUSH1 0x60 DUP2 ADD PUSH32 0xF2AE08938010A69FC2FF8FC3973AC0CDDB80E838AFED52DE963D0098FD884D2 SWAP1 MSTORE PUSH1 0x80 DUP2 ADD PUSH32 0x2A69A88C4B674E5D918B7D26D134FF6CFFBB1723104891E5558A34D110703B2C SWAP1 MSTORE PUSH1 0xA0 DUP2 ADD PUSH32 0x99CAFB81BF75CB3B3B8043CC4A879A4395D7C21E68FE264A9A6FAE0BB2E0731 SWAP1 MSTORE PUSH1 0xC0 DUP2 ADD PUSH32 0x155E43437CABE7380A36DAD36E811D82DB73C35427D3B31B2F66A9C08CB8FE89 SWAP1 MSTORE PUSH1 0xE0 DUP2 ADD PUSH32 0x2A4D0A2F38844C678569EBFA8F7EFA6A35FB6BF6B462EB48360859EFE64536C6 SWAP1 MSTORE PUSH2 0x100 DUP2 ADD PUSH32 0x2D6AE14CA6E1E55E808AD564DC250451C8F3BB839FB5B975D39496C9A91EC102 SWAP1 MSTORE PUSH2 0x120 DUP2 ADD PUSH32 0x76832DD56494DD4C64E39691E8822401679B6A91527BC8C85803A1DC86FDEBB SWAP1 MSTORE PUSH2 0x140 DUP2 ADD PUSH32 0x2E5EF81C197058F5DC62B9F3EAD75813BD9DB12098DEA5B0C4D1D7AA091B4D39 SWAP1 MSTORE PUSH2 0x160 DUP2 ADD PUSH32 0x13BDC30C7F44781FE99C2834CD947C0367F5B88A250D74C20428FCAED40BBAC0 SWAP1 MSTORE PUSH2 0x180 DUP2 ADD PUSH32 0x15B76FED0AC8F1D6E459DA90BE39D050E389C9945DEBFEDF26A9AF1ACE4F51C2 SWAP1 MSTORE PUSH2 0x1A0 DUP2 ADD PUSH32 0x1061F6F6E767CB48B7F745A7BE53721DE0964D6A7C35559BB8ABDCC155D82F6E SWAP1 MSTORE PUSH2 0x1C0 DUP2 ADD PUSH32 0x1C435F833D6B71739E0D200D27DCA10160533269D4550A1042D02AC034B9A690 SWAP1 MSTORE PUSH2 0x1E0 DUP2 ADD PUSH32 0x20393615F5C7E74249FB870FEE140E74F3E47681D425CC2EF69416DE40F27558 SWAP1 MSTORE PUSH2 0x304 CALLDATALOAD PUSH2 0x200 DUP3 ADD MSTORE PUSH2 0x324 CALLDATALOAD PUSH2 0x220 DUP3 ADD MSTORE PUSH2 0x344 CALLDATALOAD PUSH2 0x240 DUP3 ADD MSTORE PUSH2 0x364 CALLDATALOAD PUSH2 0x260 DUP3 ADD MSTORE PUSH2 0x384 CALLDATALOAD PUSH2 0x280 DUP3 ADD MSTORE PUSH2 0x3A4 CALLDATALOAD PUSH2 0x2A0 DUP3 ADD MSTORE PUSH2 0x3C4 CALLDATALOAD PUSH2 0x2C0 DUP3 ADD MSTORE PUSH2 0x3E4 CALLDATALOAD PUSH2 0x2E0 DUP3 ADD MSTORE PUSH2 0x404 CALLDATALOAD PUSH2 0x300 DUP3 ADD MSTORE PUSH2 0x424 CALLDATALOAD PUSH2 0x320 DUP3 ADD MSTORE PUSH2 0x444 CALLDATALOAD PUSH2 0x340 DUP3 ADD MSTORE PUSH2 0x464 CALLDATALOAD PUSH2 0x360 DUP3 ADD MSTORE PUSH2 0x484 CALLDATALOAD PUSH2 0x380 DUP3 ADD MSTORE PUSH2 0x4A4 CALLDATALOAD PUSH2 0x3A0 DUP3 ADD MSTORE PUSH2 0x4C4 CALLDATALOAD PUSH2 0x3C0 DUP3 ADD MSTORE PUSH2 0x4E4 CALLDATALOAD PUSH2 0x3E0 DUP3 ADD MSTORE PUSH2 0x504 CALLDATALOAD PUSH2 0x400 DUP3 ADD MSTORE PUSH2 0x524 CALLDATALOAD PUSH2 0x420 DUP3 ADD MSTORE PUSH2 0x544 CALLDATALOAD PUSH2 0x440 DUP3 ADD MSTORE PUSH2 0x564 CALLDATALOAD PUSH2 0x460 DUP3 ADD MSTORE PUSH2 0x584 CALLDATALOAD PUSH2 0x480 DUP3 ADD MSTORE PUSH2 0x5A4 CALLDATALOAD PUSH2 0x4A0 DUP3 ADD MSTORE PUSH2 0x5C4 CALLDATALOAD PUSH2 0x4C0 DUP3 ADD MSTORE PUSH2 0x5E4 CALLDATALOAD PUSH2 0x4E0 DUP3 ADD MSTORE PUSH2 0x604 CALLDATALOAD PUSH2 0x500 DUP3 ADD MSTORE PUSH2 0x624 CALLDATALOAD PUSH2 0x520 DUP3 ADD MSTORE PUSH2 0x644 CALLDATALOAD PUSH2 0x540 DUP3 ADD MSTORE PUSH2 0x664 CALLDATALOAD PUSH2 0x560 DUP3 ADD MSTORE PUSH2 0x684 CALLDATALOAD PUSH2 0x580 DUP3 ADD MSTORE PUSH2 0x6A4 CALLDATALOAD PUSH2 0x5A0 DUP3 ADD MSTORE PUSH2 0x6C4 CALLDATALOAD PUSH2 0x5C0 DUP3 ADD MSTORE PUSH2 0x6E4 CALLDATALOAD PUSH2 0x5E0 DUP3 ADD MSTORE PUSH2 0x704 CALLDATALOAD PUSH2 0x600 DUP3 ADD MSTORE PUSH2 0x724 CALLDATALOAD PUSH2 0x620 DUP3 ADD MSTORE PUSH2 0x744 CALLDATALOAD PUSH2 0x640 DUP3 ADD MSTORE PUSH2 0x764 CALLDATALOAD PUSH2 0x660 DUP3 ADD MSTORE PUSH2 0x784 CALLDATALOAD PUSH2 0x680 DUP3 ADD MSTORE PUSH2 0x7A4 CALLDATALOAD PUSH2 0x6A0 DUP3 ADD MSTORE PUSH2 0x7C4 CALLDATALOAD PUSH2 0x6C0 DUP3 ADD MSTORE PUSH2 0x7E4 CALLDATALOAD PUSH2 0x6E0 DUP3 ADD MSTORE PUSH2 0x804 CALLDATALOAD PUSH2 0x700 DUP3 ADD MSTORE PUSH2 0x824 CALLDATALOAD PUSH2 0x720 DUP3 ADD MSTORE PUSH2 0x844 CALLDATALOAD PUSH2 0x740 DUP3 ADD MSTORE PUSH2 0x864 CALLDATALOAD PUSH2 0x760 DUP3 ADD MSTORE PUSH2 0x884 CALLDATALOAD PUSH2 0x780 DUP3 ADD MSTORE PUSH2 0x8A4 CALLDATALOAD PUSH2 0x7A0 DUP3 ADD MSTORE PUSH2 0x8C4 CALLDATALOAD PUSH2 0x7C0 DUP3 ADD MSTORE PUSH2 0x8E4 CALLDATALOAD PUSH2 0x7E0 DUP3 ADD MSTORE PUSH2 0x904 CALLDATALOAD PUSH2 0x800 DUP3 ADD MSTORE PUSH2 0x924 CALLDATALOAD PUSH2 0x820 DUP3 ADD MSTORE PUSH2 0x944 CALLDATALOAD PUSH2 0x840 DUP3 ADD MSTORE PUSH2 0x964 CALLDATALOAD PUSH2 0x860 DUP3 ADD MSTORE PUSH2 0x984 CALLDATALOAD PUSH2 0x880 DUP3 ADD MSTORE PUSH2 0x9A4 CALLDATALOAD PUSH2 0x8A0 DUP3 ADD MSTORE PUSH2 0x9C4 CALLDATALOAD PUSH2 0x8C0 DUP3 ADD MSTORE PUSH2 0x9E4 CALLDATALOAD PUSH2 0x8E0 DUP3 ADD MSTORE PUSH2 0xA04 CALLDATALOAD PUSH2 0x900 DUP3 ADD MSTORE PUSH2 0xA24 CALLDATALOAD PUSH2 0x920 DUP3 ADD MSTORE PUSH2 0xA44 CALLDATALOAD PUSH2 0x940 DUP3 ADD MSTORE PUSH2 0xA64 CALLDATALOAD PUSH2 0x960 DUP3 ADD MSTORE PUSH2 0xA84 CALLDATALOAD PUSH2 0x980 DUP3 ADD MSTORE PUSH2 0xAA4 CALLDATALOAD PUSH2 0x9A0 DUP3 ADD MSTORE PUSH2 0xAC4 CALLDATALOAD PUSH2 0x9C0 DUP3 ADD MSTORE PUSH2 0xAE4 CALLDATALOAD PUSH2 0x9E0 DUP3 ADD MSTORE PUSH2 0xB04 CALLDATALOAD PUSH2 0xA00 DUP3 ADD MSTORE PUSH2 0xB24 CALLDATALOAD PUSH2 0xA20 DUP3 ADD MSTORE PUSH2 0xB44 CALLDATALOAD PUSH2 0xA40 DUP3 ADD MSTORE PUSH2 0xB64 CALLDATALOAD PUSH2 0xA60 DUP3 ADD MSTORE PUSH2 0xB84 CALLDATALOAD PUSH2 0xA80 DUP3 ADD MSTORE PUSH2 0xBA4 CALLDATALOAD PUSH2 0xAA0 DUP3 ADD MSTORE PUSH1 0x4 CALLDATALOAD PUSH2 0xAC0 DUP3 ADD MSTORE PUSH1 0x24 CALLDATALOAD PUSH2 0xAE0 DUP3 ADD MSTORE PUSH1 0x44 CALLDATALOAD PUSH2 0xB00 DUP3 ADD MSTORE PUSH1 0x64 CALLDATALOAD PUSH2 0xB20 DUP3 ADD MSTORE PUSH1 0x84 CALLDATALOAD PUSH2 0xB40 DUP3 ADD MSTORE PUSH1 0xA4 CALLDATALOAD PUSH2 0xB60 DUP3 ADD MSTORE PUSH2 0xB80 DUP2 KECCAK256 PUSH1 0x0 DUP1 MLOAD PUSH1 0x20 PUSH2 0x3379 DUP4 CODECOPY DUP2 MLOAD SWAP2 MSTORE SWAP1 MOD DUP1 PUSH1 0xA0 MSTORE PUSH1 0x20 PUSH1 0xA0 KECCAK256 PUSH1 0x0 DUP1 MLOAD PUSH1 0x20 PUSH2 0x3379 DUP4 CODECOPY DUP2 MLOAD SWAP2 MSTORE SWAP1 MOD PUSH1 0xC0 MSTORE DUP1 DUP3 MSTORE PUSH1 0xC0 MLOAD PUSH1 0x20 DUP4 ADD MSTORE PUSH1 0xC4 CALLDATALOAD PUSH1 0x40 DUP4 ADD MSTORE PUSH1 0xE4 CALLDATALOAD PUSH1 0x60 DUP4 ADD MSTORE PUSH1 0x80 DUP3 KECCAK256 PUSH1 0x0 DUP1 MLOAD PUSH1 0x20 PUSH2 0x3379 DUP4 CODECOPY DUP2 MLOAD SWAP2 MSTORE SWAP1 MOD DUP1 PUSH1 0x80 MSTORE PUSH1 0x0 DUP1 MLOAD PUSH1 0x20 PUSH2 0x3379 DUP4 CODECOPY DUP2 MLOAD SWAP2 MSTORE DUP2 DUP1 MULMOD PUSH2 0x340 MSTORE DUP3 MSTORE PUSH2 0x104 CALLDATALOAD PUSH1 0x20 DUP4 ADD MSTORE PUSH2 0x124 CALLDATALOAD PUSH1 0x40 DUP4 ADD MSTORE PUSH2 0x144 CALLDATALOAD PUSH1 0x60 DUP4 ADD MSTORE PUSH2 0x164 CALLDATALOAD PUSH1 0x80 DUP4 ADD MSTORE PUSH2 0x184 CALLDATALOAD PUSH1 0xA0 DUP4 ADD MSTORE PUSH2 0x1A4 CALLDATALOAD PUSH1 0xC0 DUP4 ADD MSTORE PUSH1 0xE0 DUP3 KECCAK256 PUSH1 0x0 DUP1 MLOAD PUSH1 0x20 PUSH2 0x3379 DUP4 CODECOPY DUP2 MLOAD SWAP2 MSTORE SWAP1 MOD DUP1 PUSH1 0xE0 MSTORE DUP1 DUP4 MSTORE PUSH2 0x244 CALLDATALOAD PUSH1 0x20 DUP5 ADD MSTORE PUSH2 0x264 CALLDATALOAD PUSH1 0x40 DUP5 ADD MSTORE PUSH2 0x284 CALLDATALOAD PUSH1 0x60 DUP5 ADD MSTORE PUSH2 0x2A4 CALLDATALOAD PUSH1 0x80 DUP5 ADD MSTORE PUSH2 0x2C4 CALLDATALOAD PUSH1 0xA0 DUP5 ADD MSTORE PUSH2 0x2E4 CALLDATALOAD PUSH1 0xC0 DUP5 ADD MSTORE PUSH1 0xE0 DUP4 KECCAK256 PUSH1 0x0 DUP1 MLOAD PUSH1 0x20 PUSH2 0x3379 DUP4 CODECOPY DUP2 MLOAD SWAP2 MSTORE SWAP1 MOD SWAP2 DUP2 DUP4 PUSH2 0x140 MSTORE PUSH1 0x0 DUP1 MLOAD PUSH1 0x20 PUSH2 0x3379 DUP4 CODECOPY DUP2 MLOAD SWAP2 MSTORE SWAP2 MULMOD PUSH2 0x120 MSTORE DUP1 PUSH1 0x0 DUP1 MLOAD PUSH1 0x20 PUSH2 0x3379 DUP4 CODECOPY DUP2 MLOAD SWAP2 MSTORE SWAP2 MULMOD DUP1 PUSH1 0x0 DUP1 MLOAD PUSH1 0x20 PUSH2 0x3379 DUP4 CODECOPY DUP2 MLOAD SWAP2 MSTORE SWAP2 MULMOD DUP1 PUSH1 0x0 DUP1 MLOAD PUSH1 0x20 PUSH2 0x3379 DUP4 CODECOPY DUP2 MLOAD SWAP2 MSTORE SWAP2 MULMOD DUP1 PUSH1 0x0 DUP1 MLOAD PUSH1 0x20 PUSH2 0x3379 DUP4 CODECOPY DUP2 MLOAD SWAP2 MSTORE SWAP2 MULMOD DUP1 PUSH1 0x0 DUP1 MLOAD PUSH1 0x20 PUSH2 0x3379 DUP4 CODECOPY DUP2 MLOAD SWAP2 MSTORE SWAP2 MULMOD DUP1 PUSH1 0x0 DUP1 MLOAD PUSH1 0x20 PUSH2 0x3379 DUP4 CODECOPY DUP2 MLOAD SWAP2 MSTORE SWAP2 MULMOD DUP1 PUSH1 0x0 DUP1 MLOAD PUSH1 0x20 PUSH2 0x3379 DUP4 CODECOPY DUP2 MLOAD SWAP2 MSTORE SWAP2 MULMOD DUP1 PUSH1 0x0 DUP1 MLOAD PUSH1 0x20 PUSH2 0x3379 DUP4 CODECOPY DUP2 MLOAD SWAP2 MSTORE SWAP2 MULMOD DUP1 PUSH1 0x0 DUP1 MLOAD PUSH1 0x20 PUSH2 0x3379 DUP4 CODECOPY DUP2 MLOAD SWAP2 MSTORE SWAP2 MULMOD DUP1 PUSH1 0x0 DUP1 MLOAD PUSH1 0x20 PUSH2 0x3379 DUP4 CODECOPY DUP2 MLOAD SWAP2 MSTORE SWAP2 MULMOD DUP1 PUSH1 0x0 DUP1 MLOAD PUSH1 0x20 PUSH2 0x3379 DUP4 CODECOPY DUP2 MLOAD SWAP2 MSTORE SWAP2 MULMOD DUP1 PUSH1 0x0 DUP1 MLOAD PUSH1 0x20 PUSH2 0x3379 DUP4 CODECOPY DUP2 MLOAD SWAP2 MSTORE SWAP2 MULMOD DUP1 PUSH2 0x100 MSTORE PUSH32 0x30644E72E131A029B85045B68181585D2833E84879B9709143E1F593F0000000 ADD PUSH1 0x0 DUP1 MLOAD PUSH1 0x20 PUSH2 0x3379 DUP4 CODECOPY DUP2 MLOAD SWAP2 MSTORE SWAP1 MOD DUP1 PUSH2 0x360 MSTORE PUSH2 0x380 MSTORE PUSH1 0x0 DUP1 MLOAD PUSH1 0x20 PUSH2 0x3379 DUP4 CODECOPY DUP2 MLOAD SWAP2 MSTORE DUP2 DUP1 MULMOD DUP2 DUP2 PUSH2 0x160 MSTORE PUSH1 0x0 DUP1 MLOAD PUSH1 0x20 PUSH2 0x3379 DUP4 CODECOPY DUP2 MLOAD SWAP2 MSTORE SWAP2 MULMOD DUP2 DUP2 PUSH2 0x180 MSTORE PUSH1 0x0 DUP1 MLOAD PUSH1 0x20 PUSH2 0x3379 DUP4 CODECOPY DUP2 MLOAD SWAP2 MSTORE SWAP2 MULMOD SWAP1 DUP2 PUSH2 0x1A0 MSTORE PUSH1 0x0 DUP1 MLOAD PUSH1 0x20 PUSH2 0x3379 DUP4 CODECOPY DUP2 MLOAD SWAP2 MSTORE SWAP2 MULMOD PUSH2 0x1C0 MSTORE PUSH2 0x1C4 CALLDATALOAD DUP2 MSTORE PUSH2 0x1E4 CALLDATALOAD PUSH1 0x20 DUP3 ADD MSTORE PUSH2 0x204 CALLDATALOAD PUSH1 0x40 DUP3 ADD MSTORE PUSH2 0x224 CALLDATALOAD PUSH1 0x60 DUP3 ADD MSTORE PUSH1 0x80 SWAP1 KECCAK256 PUSH1 0x0 DUP1 MLOAD PUSH1 0x20 PUSH2 0x3379 DUP4 CODECOPY DUP2 MLOAD SWAP2 MSTORE SWAP1 MOD PUSH2 0x1E0 MSTORE PUSH2 0x8EC PUSH2 0xA2F JUMP JUMPDEST PUSH2 0x8F4 PUSH2 0x2358 JUMP JUMPDEST PUSH2 0x8FC PUSH2 0x27CD JUMP JUMPDEST PUSH2 0x904 PUSH2 0x2D04 JUMP JUMPDEST PUSH2 0x90C PUSH2 0x2EF4 JUMP JUMPDEST PUSH2 0x914 PUSH2 0x2FD4 JUMP JUMPDEST PUSH2 0x91C PUSH2 0x3131 JUMP JUMPDEST DUP2 MSTORE PUSH1 0x20 SWAP1 RETURN JUMPDEST DUP1 REVERT JUMPDEST PUSH1 0x0 PUSH1 0x1 SWAP2 PUSH1 0x0 DUP1 MLOAD PUSH1 0x20 PUSH2 0x3379 DUP4 CODECOPY DUP2 MLOAD SWAP2 MSTORE SWAP1 DUP1 JUMPDEST PUSH2 0x96F JUMPI POP PUSH1 0x1 SWAP2 SWAP3 POP GT PUSH2 0x96A JUMPI PUSH1 0x0 DUP2 SLT PUSH2 0x957 JUMPI SWAP1 JUMP JUMPDEST PUSH1 0x0 DUP1 MLOAD PUSH1 0x20 PUSH2 0x3379 DUP4 CODECOPY DUP2 MLOAD SWAP2 MSTORE ADD SWAP1 JUMP JUMPDEST PUSH1 0x0 DUP1 REVERT JUMPDEST DUP1 DUP3 SDIV DUP5 DUP2 MUL SWAP1 SWAP4 SUB SWAP4 SWAP3 SWAP1 SWAP2 SWAP1 DUP3 MUL SWAP1 SUB DUP1 PUSH2 0x93D JUMP JUMPDEST PUSH1 0x40 MLOAD PUSH2 0x380 MLOAD PUSH2 0x3A0 SWAP1 JUMPDEST PUSH2 0xC60 DUP3 LT PUSH2 0x9E7 JUMPI PUSH2 0x9A5 SWAP1 PUSH2 0x926 JUMP JUMPDEST SWAP2 PUSH1 0x1F NOT SWAP2 DUP3 ADD SWAP2 SWAP1 DUP2 ADD JUMPDEST PUSH2 0x380 DUP4 GT PUSH2 0x9BF JUMPI POP POP MSTORE JUMP JUMPDEST DUP2 DUP1 SWAP2 PUSH1 0x0 DUP1 MLOAD PUSH1 0x20 PUSH2 0x3379 DUP4 CODECOPY DUP2 MLOAD SWAP2 MSTORE DUP1 DUP3 MLOAD DUP9 MULMOD SWAP7 DUP7 MLOAD SWAP1 MULMOD SWAP6 DUP6 MSTORE ADD SWAP3 ADD SWAP2 PUSH2 0x9B1 JUMP JUMPDEST DUP1 PUSH1 0x0 DUP1 MLOAD PUSH1 0x20 PUSH2 0x3379 DUP4 CODECOPY DUP2 MLOAD SWAP2 MSTORE SWAP2 DUP5 SWAP4 SWAP5 MSTORE DUP4 MLOAD SWAP1 MULMOD SWAP1 PUSH1 0x20 DUP1 SWAP2 ADD SWAP3 ADD SWAP1 PUSH2 0x993 JUMP JUMPDEST PUSH1 0x0 DUP1 MLOAD PUSH1 0x20 PUSH2 0x3379 DUP4 CODECOPY DUP2 MLOAD SWAP2 MSTORE GT ISZERO PUSH2 0xA25 JUMPI JUMP JUMPDEST PUSH1 0x0 DUP1 MSTORE PUSH1 0x20 PUSH1 0x0 RETURN JUMPDEST PUSH1 0x0 DUP1 MLOAD PUSH1 0x20 PUSH2 0x3379 DUP4 CODECOPY DUP2 MLOAD SWAP2 MSTORE DUP1 PUSH32 0x1F5912838F01A9DB572CD61D1FFCA58D5577BBAE517F718DBC00BFB77C490784 PUSH1 0xE0 MLOAD DUP3 DUP1 PUSH32 0x30644E72E131A029B85045B68181585D2833E84879B9709143E1F593F0000000 DUP4 ADD MOD PUSH2 0x1000 MULMOD PUSH2 0x3A0 MSTORE DUP3 DUP1 PUSH32 0x273278DC0301CF1AB67275428426C7B3B1427E810AB5D4D8279A8021EFBD2BC7 DUP4 ADD MOD PUSH2 0x1000 MULMOD PUSH2 0x3C0 MSTORE DUP3 DUP1 PUSH32 0x2DEA18EE476C9BFE044DC5DEDC4BFAEB6F72BC3105247FC673D79C9A7965D11F DUP4 ADD MOD PUSH2 0x1000 MULMOD PUSH2 0x3E0 MSTORE DUP3 DUP1 PUSH32 0x2F0E732B960386256FF5476B0FE98F3AEB3F017320A2485460B0060489FD7A89 DUP4 ADD MOD PUSH2 0x1000 MULMOD PUSH2 0x400 MSTORE DUP3 DUP1 PUSH32 0x296734B17119FC08CC91898AD0F9E679EE796E87D0E698E631E85FB233D1A6EF DUP4 ADD MOD PUSH2 0x1000 MULMOD PUSH2 0x420 MSTORE DUP3 DUP1 PUSH32 0x97D2D234BA4772C752F7262E71E05AD7BB6DAA27F0222EE227A4F7C7F80532D DUP4 ADD MOD PUSH2 0x1000 MULMOD PUSH2 0x440 MSTORE DUP3 DUP1 PUSH32 0x12EEAD87AB9D649A8E7BB9350A23D769F52B66953F101A05E7B1A5611BB8C063 DUP4 ADD MOD PUSH2 0x1000 MULMOD PUSH2 0x460 MSTORE DUP3 DUP1 PUSH32 0x2185C84D03F0CEB116D14B6007C4546CF900DE4C0625BCD3B701598571513ADE DUP4 ADD MOD PUSH2 0x1000 MULMOD PUSH2 0x480 MSTORE DUP3 DUP1 PUSH32 0x21466153EA4A70CDB89019A7A3E651E74003BE067D41431BBAA775F2A8FEA833 DUP4 ADD MOD PUSH2 0x1000 MULMOD PUSH2 0x4A0 MSTORE DUP3 DUP1 PUSH32 0x1D75BDD0718FB47A00397A029280A39AFEB21A594F1A08B878AC9752FC6B53A5 DUP4 ADD MOD PUSH2 0x1000 MULMOD PUSH2 0x4C0 MSTORE DUP3 DUP1 PUSH32 0x70C5F05A668B3398867614E95FDBFBFDD1BA7D4876B4931262159382BD39DBC DUP4 ADD MOD PUSH2 0x1000 MULMOD PUSH2 0x4E0 MSTORE DUP3 DUP1 PUSH32 0xAF4572D0AFE5FE1412C7CA6B1B019AAEC65D4B6F5FB65D9DD938309093BFAC5 DUP4 ADD MOD PUSH2 0x1000 MULMOD PUSH2 0x500 MSTORE DUP3 DUP1 PUSH32 0xBEB5E960EF05F7426F8E9A191F200D0289EC9BC830C975B39E020E39A1C39AD DUP4 ADD MOD PUSH2 0x1000 MULMOD PUSH2 0x520 MSTORE DUP3 DUP1 PUSH31 0xFADDA1BDB2B06CAAB63923F2E07B9174726AADE727EAA517EBBAD0260A818E DUP4 ADD MOD PUSH2 0x1000 MULMOD PUSH2 0x540 MSTORE DUP3 DUP1 PUSH32 0x6BCDA193C5474AC5FE6B5F74524881525509376A7361C2D447D551EB317C82F DUP4 ADD MOD PUSH2 0x1000 MULMOD PUSH2 0x560 MSTORE DUP3 DUP1 PUSH32 0xF40C30277D5052DEA5D795749F1E7A1EE2B534339AC64067AA9CA7147F975E7 DUP4 ADD MOD PUSH2 0x1000 MULMOD PUSH2 0x580 MSTORE DUP3 DUP1 PUSH32 0x28B389113B1D1C24C7CA256BE24A58ACC6BAA5F412687E607B4E94027B5A858B DUP4 ADD MOD PUSH2 0x1000 MULMOD PUSH2 0x5A0 MSTORE DUP3 DUP1 PUSH32 0x171F38E9BE9D7C94C674ED1BC8E0B3E794481655A07A39F49B7D627962AD5CDF DUP4 ADD MOD PUSH2 0x1000 MULMOD PUSH2 0x5C0 MSTORE DUP3 DUP1 PUSH32 0x19A751BE229DD99D826D4959F55737F4D56458062852CD7339C933013EA9BAB6 DUP4 ADD MOD PUSH2 0x1000 MULMOD PUSH2 0x5E0 MSTORE DUP3 DUP1 PUSH31 0x3C17F5E8907B841C1089A549C7A9D6E43E4B66C4CCE12FA221E2DF39CCA15D DUP4 ADD MOD PUSH2 0x1000 MULMOD PUSH2 0x600 MSTORE DUP3 DUP1 PUSH32 0x272573C088D418D490FD0C627CD70F2BF77806766C726200EDBA92865506E6B7 DUP4 ADD MOD PUSH2 0x1000 MULMOD PUSH2 0x620 MSTORE DUP3 DUP1 PUSH32 0x1222F380031A264F9C82DCAB8F471CA673CA0BB0511AE6887386FCCE73DF5836 DUP4 ADD MOD PUSH2 0x1000 MULMOD PUSH2 0x640 MSTORE DUP3 DUP1 PUSH32 0x13DDF80A011CAB301DC85B3C5CD19B77C1356871DE735CC36A7FF3F12D55B5FF DUP4 ADD MOD PUSH2 0x1000 MULMOD PUSH2 0x660 MSTORE DUP3 DUP1 PUSH32 0x20FBA161F79DB17D8CEA550296A44AE718A45CEBB5EA1AC2FB6859D924497174 DUP4 ADD MOD PUSH2 0x1000 MULMOD PUSH2 0x680 MSTORE DUP3 DUP1 PUSH32 0x1E03A8E524E06BF8E83A3DF1B756ED83939D3DB6E60FF73BA633D4CB4B490592 DUP4 ADD MOD PUSH2 0x1000 MULMOD PUSH2 0x6A0 MSTORE DUP3 DUP1 PUSH32 0x291501F354DE0FAD242103650E09F95F3E1A9E0D04F70EF0EDC00E96CAD73A32 DUP4 ADD MOD PUSH2 0x1000 MULMOD PUSH2 0x6C0 MSTORE DUP3 DUP1 PUSH32 0x14FF1CBDE7180444C6CF15A4F7090659BB50743ED0404CFA5D1DB2AE3E57E9B1 DUP4 ADD MOD PUSH2 0x1000 MULMOD PUSH2 0x6E0 MSTORE DUP3 DUP1 PUSH32 0x2327845130CDBBD1A1D54F6F499A989A71116DD4E3EFF9CF0646BB12F238B99C DUP4 ADD MOD PUSH2 0x1000 MULMOD PUSH2 0x700 MSTORE DUP3 DUP1 PUSH32 0x20DEA1744E4AD8E9B328811CA5CD294A3F8BA4C9D71A249F06C5BD52890A8B6C DUP4 ADD MOD PUSH2 0x1000 MULMOD PUSH2 0x720 MSTORE DUP3 DUP1 PUSH32 0x1E2C9CFA2F4647152F97A69A014549FE406FCD76BA9F9B2D809FB7BDF9F9EA6A DUP4 ADD MOD PUSH2 0x1000 MULMOD PUSH2 0x740 MSTORE DUP3 DUP1 PUSH32 0x3415057C9F054D3C9360C4A764D39A1D9AF37D42622A5E38DC45F29A45103A3 DUP4 ADD MOD PUSH2 0x1000 MULMOD PUSH2 0x760 MSTORE DUP3 DUP1 PUSH32 0x4522E838EDEAF76E13DEA88A1DE5225D4D21E24A8F31C217828CAC4A2957A56 DUP4 ADD MOD PUSH2 0x1000 MULMOD PUSH2 0x780 MSTORE DUP3 DUP1 PUSH32 0x197D107534009697D8F364199928147D0A6892E3C2C72417A6D3AE873562E7F0 DUP4 ADD MOD PUSH2 0x1000 MULMOD PUSH2 0x7A0 MSTORE DUP3 DUP1 PUSH32 0x190338A01581B460693A0C0E1C7A66B93D363659A2672C938BCAD0B2E35E6DAD DUP4 ADD MOD PUSH2 0x1000 MULMOD PUSH2 0x7C0 MSTORE DUP3 DUP1 PUSH32 0x2F24B56EEDD4FFF326360A90472AD03468D0715B019CF44F410F5555093C2D65 DUP4 ADD MOD PUSH2 0x1000 MULMOD PUSH2 0x7E0 MSTORE DUP3 DUP1 PUSH32 0x1AB69C7E115CB4B5DDB8FE53580DBA57478331F7276BA86CC3A48C1589D8BFCB DUP4 ADD MOD PUSH2 0x1000 MULMOD PUSH2 0x800 MSTORE DUP3 DUP1 PUSH32 0x1FBFE4A677F32A14423DA30A25E83C868E0297C1B177103171641D57670AFD30 DUP4 ADD MOD PUSH2 0x1000 MULMOD PUSH2 0x820 MSTORE DUP3 DUP1 PUSH32 0xEEB19098B3DF11C1FBF20D34BD18356D9FF29FA1BEF6479407BB7F094B07F2C DUP4 ADD MOD PUSH2 0x1000 MULMOD PUSH2 0x840 MSTORE DUP3 DUP1 PUSH32 0x18221FB3B961DB5C3ECA9EC6D7F4740D3CA7311F45BECFE93690ACC1370FFD06 DUP4 ADD MOD PUSH2 0x1000 MULMOD PUSH2 0x860 MSTORE DUP3 DUP1 PUSH32 0x3029C14367ABDF272C8711FF32B2534D933ADF6F146F0CDAEE146A4ECFD87AA7 DUP4 ADD MOD PUSH2 0x1000 MULMOD PUSH2 0x880 MSTORE DUP3 DUP1 PUSH32 0x558C1B32B0A3CB3B42684BC946257994B8708A9B61A3ED8EDECAE9BCCFFB440 DUP4 ADD MOD PUSH2 0x1000 MULMOD PUSH2 0x8A0 MSTORE DUP3 DUP1 PUSH32 0x12B904E5D7DC06B54AF6E053F1387BD4BA831E35BD4E32AD0BE25470C82AEA4F DUP4 ADD MOD PUSH2 0x1000 MULMOD PUSH2 0x8C0 MSTORE DUP3 DUP1 PUSH32 0xFC0F26E7571B07D3E069C7B4279CE1400FADC221AB3A9AFA3CD539E68B4A56E DUP4 ADD MOD PUSH2 0x1000 MULMOD PUSH2 0x8E0 MSTORE DUP3 DUP1 PUSH32 0x1BB89CFCA8A2552C9C299DD2BEABC0A61E9A881D514684370E99DB6FD420B365 DUP4 ADD MOD PUSH2 0x1000 MULMOD PUSH2 0x900 MSTORE DUP3 DUP1 PUSH32 0x21212A9BD86D52758FE4D28A6F33D1E1594644FD3D6FFAE4CFBA93302B96472C DUP4 ADD MOD PUSH2 0x1000 MULMOD PUSH2 0x920 MSTORE DUP3 DUP1 PUSH32 0x9A350961498D17FFD9CE42C0DEFC9A84AE91F1048533F2F41E10176D02F07AD DUP4 ADD MOD PUSH2 0x1000 MULMOD PUSH2 0x940 MSTORE DUP3 DUP1 PUSH32 0x294E4DC5090561248A98D6416BC3A443B28BADF308F3CE80A61FC378FB2829A1 DUP4 ADD MOD PUSH2 0x1000 MULMOD PUSH2 0x960 MSTORE DUP3 DUP1 PUSH32 0x1076381B931341027112FDFA81FF24204203E09C56F34FDEB2A361D55F43CD61 DUP4 ADD MOD PUSH2 0x1000 MULMOD PUSH2 0x980 MSTORE DUP3 DUP1 PUSH32 0x289781269EE85498875DA00DBCBD84300CABF163BE600727DD69A7D3762D574D DUP4 ADD MOD PUSH2 0x1000 MULMOD PUSH2 0x9A0 MSTORE DUP3 DUP1 PUSH32 0x1838A5A6094CF464D97895C7DD7653A057322EFDF1F3ED007C81BA2D72CEAEA8 DUP4 ADD MOD PUSH2 0x1000 MULMOD PUSH2 0x9C0 MSTORE DUP3 DUP1 PUSH32 0x348DB597FE96C33EEF2DB5DDF0DD75FC7C8E15E47A003219ED7020280DC71BE DUP4 ADD MOD PUSH2 0x1000 MULMOD PUSH2 0x9E0 MSTORE DUP3 DUP1 PUSH32 0x1759226E9CCC2DEAE55A2AB93A5BF93D6ED533575B924A256666EDA096D18B8A DUP4 ADD MOD PUSH2 0x1000 MULMOD PUSH2 0xA00 MSTORE DUP3 DUP1 PUSH32 0xBCEA208031FC00503F959C232271BEDE00C00C208C525608DBB770B283D18AD DUP4 ADD MOD PUSH2 0x1000 MULMOD PUSH2 0xA20 MSTORE DUP3 DUP1 PUSH32 0x2577483A072CB9EE56E70FE30F3972E1E6969A9C77A88B2557128B8097F67661 DUP4 ADD MOD PUSH2 0x1000 MULMOD PUSH2 0xA40 MSTORE DUP3 DUP1 PUSH32 0xEB88EE9C76F3C4757E51B3D1E2BEAF8AF14B3637D2331A5F9609B43959B3E61 DUP4 ADD MOD PUSH2 0x1000 MULMOD PUSH2 0xA60 MSTORE DUP3 DUP1 PUSH32 0x2FAD09D0CAD58E91AD927744CCFEADDD3DB816E25BA94A85C647A5CBEB8A0325 DUP4 ADD MOD PUSH2 0x1000 MULMOD PUSH2 0xA80 MSTORE DUP3 DUP1 PUSH32 0x301ECB6F813D5F31725C635BF897A9101AAAB66FE034E201294A84802868B8BC DUP4 ADD MOD PUSH2 0x1000 MULMOD PUSH2 0xAA0 MSTORE DUP3 DUP1 PUSH32 0x16DA9B1D020B6155E0B771C688208B6B0BD00A745CFA42940A7A87EEE5702640 DUP4 ADD MOD PUSH2 0x1000 MULMOD PUSH2 0xAC0 MSTORE DUP3 DUP1 PUSH31 0x31B38F45D4DBDD1052E96525E820646DCE03DC54FFF9A1ED2138835CF021CD DUP4 ADD MOD PUSH2 0x1000 MULMOD PUSH2 0xAE0 MSTORE DUP3 DUP1 PUSH32 0x1918FF7EC17699F49D5D436F12D114A5C3012601F0AF21F71D824A3FC432C49A DUP4 ADD MOD PUSH2 0x1000 MULMOD PUSH2 0xB00 MSTORE DUP3 DUP1 PUSH32 0xD07DDDB4DE9FE554914398A44C143C4185090A525FD38FBEF49C4688E049F3E DUP4 ADD MOD PUSH2 0x1000 MULMOD PUSH2 0xB20 MSTORE DUP3 DUP1 PUSH32 0x186DB40C7DE025A7E21A2299BBA796AEB74ADB265E07FDDE0E8FA8D22BEF498A DUP4 ADD MOD PUSH2 0x1000 MULMOD PUSH2 0xB40 MSTORE DUP3 DUP1 PUSH32 0x2806DD6A143B9EB7C7C9F0483D8DB708E361D1ED6DC133ACDA9D6392413F8CA DUP4 ADD MOD PUSH2 0x1000 MULMOD PUSH2 0xB60 MSTORE DUP3 DUP1 PUSH32 0x2B90F142CFFFD0BB89EC861DA13EE8B351989CCB2F99733CF8287E00E7DDC4E2 DUP4 ADD MOD PUSH2 0x1000 MULMOD PUSH2 0xB80 MSTORE DUP3 DUP1 PUSH32 0x1C4C3A258629905EF6036A4037C3AA6AE18D1D2452D64BD2684CFA8EDE70FDC7 DUP4 ADD MOD PUSH2 0x1000 MULMOD PUSH2 0xBA0 MSTORE DUP3 DUP1 PUSH32 0x7860AC423EB675B0F58B6A7BB29FCB5685C6E9A41787999198DB2F9D0550500 DUP4 ADD MOD PUSH2 0x1000 MULMOD PUSH2 0xBC0 MSTORE DUP3 DUP1 PUSH31 0xF21103EF0266D640799F130CBE2E573A267E2EE8818F6CDBEDDCCBEA14E85B DUP4 ADD MOD PUSH2 0x1000 MULMOD PUSH2 0xBE0 MSTORE DUP3 DUP1 PUSH32 0x40F355B7AD8D1226E0E4EC2EF5685BE07A702B62EAEA51CBD2DED2663B8D9CC DUP4 ADD MOD PUSH2 0x1000 MULMOD PUSH2 0xC00 MSTORE DUP3 DUP1 PUSH32 0x20874C590D6EF16EDD82BFB32A594615BB73F42F510AFEC6DDD7FD9BD280A34 DUP4 ADD MOD PUSH2 0x1000 MULMOD PUSH2 0xC20 MSTORE ADD MOD PUSH2 0x1000 MULMOD PUSH2 0xC40 MSTORE PUSH2 0x16D7 PUSH2 0x987 JUMP JUMPDEST PUSH1 0x0 DUP1 MLOAD PUSH1 0x20 PUSH2 0x3379 DUP4 CODECOPY DUP2 MLOAD SWAP2 MSTORE DUP1 PUSH2 0x360 MLOAD DUP2 DUP2 PUSH2 0x3A0 MLOAD MULMOD PUSH2 0x3A0 MSTORE DUP2 DUP1 DUP3 PUSH2 0x3C0 MLOAD MULMOD PUSH32 0x931D596DE2FD10F01DDD073FD5A90A976F169C76F039BB91C4775720042D43A MULMOD PUSH2 0x3C0 MSTORE DUP2 DUP1 DUP3 PUSH2 0x3E0 MLOAD MULMOD PUSH32 0x27A358499C5042BB4027FD7A5355D71B8C12C177494F0CAD00A58F9769A2EE2 MULMOD PUSH2 0x3E0 MSTORE DUP2 DUP1 DUP3 PUSH2 0x400 MLOAD MULMOD PUSH32 0x155DB474B2E1A04485AFE4B7197C9223CF4E6D55917283CE331EF8F66028578 MULMOD PUSH2 0x400 MSTORE DUP2 DUP1 DUP3 PUSH2 0x420 MLOAD MULMOD PUSH32 0x6FD19C17017A420EBBEBC2BB08771E339BA79C0A8D2D7AB11F995E1BC2E5912 MULMOD PUSH2 0x420 MSTORE DUP2 DUP1 DUP3 PUSH2 0x440 MLOAD MULMOD PUSH32 0x26E7214F958D28FD4320D3539A6352AFAC7D0DA5FAB74DA32167A617707FACD4 MULMOD PUSH2 0x440 MSTORE DUP2 DUP1 DUP3 PUSH2 0x460 MLOAD MULMOD PUSH32 0x1D75A0EB35943B8F29D48C81775D80F3330881B33AA9568B5C305032D4473F9E MULMOD PUSH2 0x460 MSTORE DUP2 DUP1 DUP3 PUSH2 0x480 MLOAD MULMOD PUSH32 0xEDE8625DD40D178A17EFA5679BD03F02F3309FC7393B3BD8CE09C0E7EAEC523 MULMOD PUSH2 0x480 MSTORE DUP2 DUP1 DUP3 PUSH2 0x4A0 MLOAD MULMOD PUSH32 0xF1DED1EF6E72F5BFFC02C0EDD9B0675E8302A41FC782D75893A7FA1470157CE MULMOD PUSH2 0x4A0 MSTORE DUP2 DUP1 DUP3 PUSH2 0x4C0 MLOAD MULMOD PUSH32 0x12EE90A26FA1EBAFB816CBB3EF00B4C22981CDEF2A9F67D8CB355E40F394AC5C MULMOD PUSH2 0x4C0 MSTORE DUP2 DUP1 DUP3 PUSH2 0x4E0 MLOAD MULMOD PUSH32 0x2957EF6D3AC8ECF02FE8E467EB83989D4B184073F24E27601DC09C5BC42C6245 MULMOD PUSH2 0x4E0 MSTORE DUP2 DUP1 DUP3 PUSH2 0x500 MLOAD MULMOD PUSH32 0x256FF745D63340487723C90FCFD13EB23BCE139183BE0AB7664E728AE6C4053C MULMOD PUSH2 0x500 MSTORE DUP2 DUP1 DUP3 PUSH2 0x520 MLOAD MULMOD PUSH32 0x2478EFDCD24140B591575C14EF8F578CFF951E8BF6ACD9360A01D4B055E3C654 MULMOD PUSH2 0x520 MSTORE DUP2 DUP1 DUP3 PUSH2 0x540 MLOAD MULMOD PUSH32 0x2F6970D1237EEFBD0D9A0C928EA0DCCBB3C17D9A929185EC2BF63AC3C9F57E73 MULMOD PUSH2 0x540 MSTORE DUP2 DUP1 DUP3 PUSH2 0x560 MLOAD MULMOD PUSH32 0x29A77459A4DD2B7D58698FBF3C5CD04802E354D1D2835463FF64A0753CE837D2 MULMOD PUSH2 0x560 MSTORE DUP2 DUP1 DUP3 PUSH2 0x580 MLOAD MULMOD PUSH32 0x21238B70695C9AFBCDF2CC5F378F70BB3A089505400D0C8AC9382B22A8068A1A MULMOD PUSH2 0x580 MSTORE DUP2 DUP1 DUP3 PUSH2 0x5A0 MLOAD MULMOD PUSH32 0x7B0C561A6148404F086204A9F36FFB0617942546750F230C893619174A57A76 MULMOD PUSH2 0x5A0 MSTORE DUP2 DUP1 DUP3 PUSH2 0x5C0 MLOAD MULMOD PUSH32 0x1945158922942394F1DB589AB8A0A47593EBD1F2D93F369CA864931A8D52A322 MULMOD PUSH2 0x5C0 MSTORE DUP2 DUP1 DUP3 PUSH2 0x5E0 MLOAD MULMOD PUSH32 0x16BCFCB4BE93C68C35E2FC5C8C2A206852CF90425166A31E0A18C292B156454B MULMOD PUSH2 0x5E0 MSTORE DUP2 DUP1 DUP3 PUSH2 0x600 MLOAD MULMOD PUSH32 0x3028367CF8A124A59C3FBC1137B9AE8643F59CE1B4EC8F61A1C012B4B6335EA4 MULMOD PUSH2 0x600 MSTORE DUP2 DUP1 DUP3 PUSH2 0x620 MLOAD MULMOD PUSH32 0x93EDAB2585D87552753395404AA493130BBE1D20D470E905627630D9AF9194A MULMOD PUSH2 0x620 MSTORE DUP2 DUP1 DUP3 PUSH2 0x640 MLOAD MULMOD PUSH32 0x1E415AF2DE1779DA1BCD690AF23A3BB6B469DC98289E8A08D05AF8C57C20A7CB MULMOD PUSH2 0x640 MSTORE DUP2 DUP1 DUP3 PUSH2 0x660 MLOAD MULMOD PUSH32 0x1C865668E014F4F99A87EA7A24AFBCE566FE7FD69B4613CDD96201A2C2AA4A02 MULMOD PUSH2 0x660 MSTORE DUP2 DUP1 DUP3 PUSH2 0x680 MLOAD MULMOD PUSH32 0xF68AD10E993EEAC2B65F0B3EADD0D760F8F8B5CC3CF55CE48799BBACBB68E8D MULMOD PUSH2 0x680 MSTORE DUP2 DUP1 DUP3 PUSH2 0x6A0 MLOAD MULMOD PUSH32 0x1260A58DBC513430D01607C4CA2A6AD99496AA9193A979559DAE20C8A4B6FA6F MULMOD PUSH2 0x6A0 MSTORE DUP2 DUP1 DUP3 PUSH2 0x6C0 MLOAD MULMOD PUSH32 0x74F4C7F8C53907C942F425173775EFDEA194A3B74C261A05621E6FD2528C5CF MULMOD PUSH2 0x6C0 MSTORE DUP2 DUP1 DUP3 PUSH2 0x6E0 MLOAD MULMOD PUSH32 0x1B6531B4FA199BE4F18130118A7852036CE37409A9792396E6C442E5B1A81650 MULMOD PUSH2 0x6E0 MSTORE DUP2 DUP1 DUP3 PUSH2 0x700 MLOAD MULMOD PUSH32 0xD3CCA21B063E458167AF64737E6BFC2B7227A7395C976C23D9B3A80FDC74665 MULMOD PUSH2 0x700 MSTORE DUP2 DUP1 DUP3 PUSH2 0x720 MLOAD MULMOD PUSH32 0xF85ACFE92E6C7400527C499DBB42F12E8A8437EA29F4BF23D1C384166F57495 MULMOD PUSH2 0x720 MSTORE DUP2 DUP1 DUP3 PUSH2 0x740 MLOAD MULMOD PUSH32 0x1237B178B1EB591488B89F1C803C0E5EE7C41AD1BF19D563C3423DD5F6061597 MULMOD PUSH2 0x740 MSTORE DUP2 DUP1 DUP3 PUSH2 0x760 MLOAD MULMOD PUSH32 0x2D22FE1B17414B55EF1A396C0B341EBB4E84B0745396CAADB61D966A4BAEFC5E MULMOD PUSH2 0x760 MSTORE DUP2 DUP1 DUP3 PUSH2 0x780 MLOAD MULMOD PUSH32 0x2C121FEF5252F0B2D7125B2DDFA306375361CA23D0C6546FCBB92ACF4D6A85AB MULMOD PUSH2 0x780 MSTORE DUP2 DUP1 DUP3 PUSH2 0x7A0 MLOAD MULMOD PUSH32 0x16E73DFDAD310991DF5CE19CE85943E01DCB5564B6F24C799D0E470CBA9D1811 MULMOD PUSH2 0x7A0 MSTORE DUP2 DUP1 DUP3 PUSH2 0x7C0 MLOAD MULMOD PUSH32 0x176115D2CBAFEBC94F1639A86506F1A3EAFDB1EED75243FDB81724E10CA19254 MULMOD PUSH2 0x7C0 MSTORE DUP2 DUP1 DUP3 PUSH2 0x7E0 MLOAD MULMOD PUSH32 0x13F9903F35CA036921A3B263A568828BF6376ED781C7C4202D2A03EE6C3D29C MULMOD PUSH2 0x7E0 MSTORE DUP2 DUP1 DUP3 PUSH2 0x800 MLOAD MULMOD PUSH32 0x15ADB1F4CFD4EB73DA97476329739E05E0B0B651524DC824803D697E66274036 MULMOD PUSH2 0x800 MSTORE DUP2 DUP1 DUP3 PUSH2 0x820 MLOAD MULMOD PUSH32 0x10A469CC693E76157612A2AC5B991BD69A315086C842605FD27DD83C88F502D1 MULMOD PUSH2 0x820 MSTORE DUP2 DUP1 DUP3 PUSH2 0x840 MLOAD MULMOD PUSH32 0x2179356955F3AF0D989124E335AFD5064E34BE4E5DCA0C1803663DA35B4F80D5 MULMOD PUSH2 0x840 MSTORE DUP2 DUP1 DUP3 PUSH2 0x860 MLOAD MULMOD PUSH32 0x18422EBF27CFC4CD7985A6EFA98CE44FEB8CB72933FAA0A80D5148D2B8F002FB MULMOD PUSH2 0x860 MSTORE DUP2 DUP1 DUP3 PUSH2 0x880 MLOAD MULMOD PUSH31 0x3A8D2F7985C1028BC933B74ECF050F94F908D9654A63B655CD8B452027855A MULMOD PUSH2 0x880 MSTORE DUP2 DUP1 DUP3 PUSH2 0x8A0 MLOAD MULMOD PUSH32 0x2B0B8CBFB62763760429C0F9ED1F00C3DCACDF9EC39F31B855F546F823004BC1 MULMOD PUSH2 0x8A0 MSTORE DUP2 DUP1 DUP3 PUSH2 0x8C0 MLOAD MULMOD PUSH32 0x1DAB498D095599746D5965629048DC886DB0CA12BC6B3DE437FFA12327D515B2 MULMOD PUSH2 0x8C0 MSTORE DUP2 DUP1 DUP3 PUSH2 0x8E0 MLOAD MULMOD PUSH32 0x20A35C046BBFEFAC7A49A93B3F078A4927390C265F05C6E1A014A1F5874B5A93 MULMOD PUSH2 0x8E0 MSTORE DUP2 DUP1 DUP3 PUSH2 0x900 MLOAD MULMOD PUSH32 0x14ABB176388F4AFD1C26A7E3C2D597B70999602B2872EC5A35481A241BDF4C9C MULMOD PUSH2 0x900 MSTORE DUP2 DUP1 DUP3 PUSH2 0x920 MLOAD MULMOD PUSH32 0xF4323D708C44DB4286B732C124D867BCEEDA34B3C4975AC74276263C469B8D5 MULMOD PUSH2 0x920 MSTORE DUP2 DUP1 DUP3 PUSH2 0x940 MLOAD MULMOD PUSH32 0x26C0FDDCCC98CEA9BAB3618A73918EB4DD4AC938316631620200F41D1FD0F854 MULMOD PUSH2 0x940 MSTORE DUP2 DUP1 DUP3 PUSH2 0x960 MLOAD MULMOD PUSH32 0x71600ADD82C3F052DB76F7515BDB41975A83A5570C5A2109DC2321AF4D7D660 MULMOD PUSH2 0x960 MSTORE DUP2 DUP1 DUP3 PUSH2 0x980 MLOAD MULMOD PUSH32 0x1FEE16574E1E5F27473D47BBFF82343CE63007AC22C620B2913E93BE90BC32A0 MULMOD PUSH2 0x980 MSTORE DUP2 DUP1 DUP3 PUSH2 0x9A0 MLOAD MULMOD PUSH32 0x7CCCD4C42494B9130F2A5A8C4C3D42D1B87F6E4BB59696966784DC079D2A8B4 MULMOD PUSH2 0x9A0 MSTORE DUP2 DUP1 DUP3 PUSH2 0x9C0 MLOAD MULMOD PUSH32 0x182BA8CCD7E4ABC4DED7AFEEA40B04BCD101B94A87C58390C7603B667D315159 MULMOD PUSH2 0x9C0 MSTORE DUP2 DUP1 DUP3 PUSH2 0x9E0 MLOAD MULMOD PUSH32 0x2D1B7319614833F5C95D6A58A27380FD606B06EA32196D6FA50AF3916F238E43 MULMOD PUSH2 0x9E0 MSTORE DUP2 DUP1 DUP3 PUSH2 0xA00 MLOAD MULMOD PUSH32 0x190B2C044465723ED2F61AFD47255F1FB95EB4F11E27266BDD7B07F3592E7477 MULMOD PUSH2 0xA00 MSTORE DUP2 DUP1 DUP3 PUSH2 0xA20 MLOAD MULMOD PUSH32 0x2495AC6ADE11E024B456EBF44F5A3C6F4827E78670F44B30B6267E88C7C2E754 MULMOD PUSH2 0xA20 MSTORE DUP2 DUP1 DUP3 PUSH2 0xA40 MLOAD MULMOD PUSH32 0xAED0638DA04E63B616935D37247E57B419D4DAC0210E56BECCF6A13580989A0 MULMOD PUSH2 0xA40 MSTORE DUP2 DUP1 DUP3 PUSH2 0xA60 MLOAD MULMOD PUSH32 0x21ABBF8919C263E2606B2A7963556D64791F34E4FC963EEB4A815A505A64C1A0 MULMOD PUSH2 0xA60 MSTORE DUP2 DUP1 DUP3 PUSH2 0xA80 MLOAD MULMOD PUSH31 0xB744A2165C11980ABDCE71B482AA7FEA7BD1661E10260B7D9A4FC80475FCDC MULMOD PUSH2 0xA80 MSTORE DUP2 DUP1 DUP3 PUSH2 0xAA0 MLOAD MULMOD PUSH31 0x4583035FF440F845F3E25A88E9AF4D0D8931D899848E901A977113C7974745 MULMOD PUSH2 0xAA0 MSTORE DUP2 DUP1 DUP3 PUSH2 0xAC0 MLOAD MULMOD PUSH32 0x1989B355DF263ED3D798D3EFF960CCF21C63DDD41CBF2DFD39676DA50A8FD9C1 MULMOD PUSH2 0xAC0 MSTORE DUP2 DUP1 DUP3 PUSH2 0xAE0 MLOAD MULMOD PUSH32 0x30329AE39B5CC44CA7FD5C515B9937F8BA65E46C24B976EF56C0BD10930FDE34 MULMOD PUSH2 0xAE0 MSTORE DUP2 DUP1 DUP3 PUSH2 0xB00 MLOAD MULMOD PUSH32 0x174B4EF41FBB06351AF302476EB043B76532C246890A4E9A265FAB542BCD3B67 MULMOD PUSH2 0xB00 MSTORE DUP2 DUP1 DUP3 PUSH2 0xB20 MLOAD MULMOD PUSH32 0x235C70979347A1D46F3C0C2C3CC014990FE357A353BC37955498312B61FB60C3 MULMOD PUSH2 0xB20 MSTORE DUP2 DUP1 DUP3 PUSH2 0xB40 MLOAD MULMOD PUSH32 0x17F69A6663517A81D636231CC5D9C1AE70E90D221BB172B335524CC1C410B677 MULMOD PUSH2 0xB40 MSTORE DUP2 DUP1 DUP3 PUSH2 0xB60 MLOAD MULMOD PUSH32 0x2DE3E09C3FEDE63E3BD3A6B1FDA87CEC99FDCB29A2DD5D5676381F5ACBEC0737 MULMOD PUSH2 0xB60 MSTORE DUP2 DUP1 DUP3 PUSH2 0xB80 MLOAD MULMOD PUSH32 0x4D35D301131CF6E2E63BF98E0426FA9D69B4B7D4A1FFD544BB9779308223B1F MULMOD PUSH2 0xB80 MSTORE DUP2 DUP1 DUP3 PUSH2 0xBA0 MLOAD MULMOD PUSH32 0x1418144D5B080FCAC24CDB7649BDADF246A6CB2426E324BEDB94FB05118F023A MULMOD PUSH2 0xBA0 MSTORE DUP2 DUP1 DUP3 PUSH2 0xBC0 MLOAD MULMOD PUSH32 0x28DE43AEBD4638CEA8F78F0EC6575BA7BFD779AE3840F6F82A54429A1FAAFB01 MULMOD PUSH2 0xBC0 MSTORE DUP2 DUP1 DUP3 PUSH2 0xBE0 MLOAD MULMOD PUSH32 0x2F723D6EF22F395377D6A6A374C32A05EE0D6A199137E12467F418C805EB17A6 MULMOD PUSH2 0xBE0 MSTORE DUP2 DUP1 DUP3 PUSH2 0xC00 MLOAD MULMOD PUSH32 0x2C5519176658CF074A41F6F3922AD29F208CE5924B0ACB7486B4086D8C472635 MULMOD PUSH2 0xC00 MSTORE DUP2 DUP1 DUP3 PUSH2 0xC20 MLOAD MULMOD PUSH32 0x2E5BD9AD505AB112CA7819BB4EDBC3FBCC7CA90584A8C0A4D60475BA32D7F5CD MULMOD PUSH2 0xC20 MSTORE PUSH2 0xC40 MLOAD MULMOD PUSH32 0x110B3BEF522FF64E61236F996184B2CFD2BC2C9A2839FF0387E135DC73B6F87D MULMOD PUSH2 0xC40 MSTORE JUMP JUMPDEST PUSH1 0x0 DUP1 MLOAD PUSH1 0x20 PUSH2 0x3379 DUP4 CODECOPY DUP2 MLOAD SWAP2 MSTORE DUP1 DUP1 DUP1 DUP1 DUP1 DUP1 DUP1 DUP1 DUP1 DUP1 DUP1 DUP1 DUP1 DUP1 DUP1 DUP1 DUP1 DUP1 DUP1 DUP1 DUP1 DUP1 DUP1 DUP1 DUP1 DUP1 DUP1 DUP1 DUP1 DUP1 DUP1 DUP1 DUP1 DUP1 DUP1 DUP1 DUP1 DUP1 DUP1 DUP1 DUP1 DUP1 DUP1 DUP1 DUP1 DUP1 DUP1 DUP1 DUP1 DUP1 DUP1 DUP1 DUP1 DUP1 DUP1 DUP1 DUP1 DUP1 DUP1 DUP1 DUP1 DUP1 DUP1 DUP1 DUP1 DUP1 DUP1 DUP1 DUP1 DUP1 DUP1 DUP1 DUP1 DUP1 DUP1 DUP1 DUP1 DUP1 DUP1 DUP1 DUP1 DUP1 DUP1 DUP1 DUP1 DUP1 DUP1 DUP1 DUP1 DUP1 DUP1 DUP1 DUP1 DUP1 DUP1 DUP1 DUP1 DUP1 DUP1 DUP1 DUP1 DUP1 DUP1 DUP1 DUP1 DUP1 DUP1 DUP1 DUP1 DUP1 DUP1 DUP1 DUP1 DUP1 DUP1 DUP1 DUP1 DUP1 DUP1 DUP1 DUP1 DUP1 DUP1 DUP1 DUP1 DUP1 DUP1 DUP1 DUP1 DUP1 DUP1 DUP1 DUP1 DUP1 DUP1 DUP1 DUP1 DUP1 DUP1 DUP1 PUSH2 0x304 CALLDATALOAD PUSH2 0x3A0 MLOAD MULMOD PUSH1 0x0 SUB ADD MOD DUP2 PUSH2 0x324 CALLDATALOAD PUSH2 0x3C0 MLOAD MULMOD SWAP1 SUB ADD MOD DUP2 PUSH2 0x344 CALLDATALOAD PUSH2 0x3E0 MLOAD MULMOD SWAP1 SUB ADD MOD DUP2 PUSH2 0x364 CALLDATALOAD PUSH2 0x400 MLOAD MULMOD SWAP1 SUB ADD MOD DUP2 PUSH2 0x384 CALLDATALOAD PUSH2 0x420 MLOAD MULMOD SWAP1 SUB ADD MOD DUP2 PUSH2 0x3A4 CALLDATALOAD PUSH2 0x440 MLOAD MULMOD SWAP1 SUB ADD MOD DUP2 PUSH2 0x3C4 CALLDATALOAD PUSH2 0x460 MLOAD MULMOD SWAP1 SUB ADD MOD DUP2 PUSH2 0x3E4 CALLDATALOAD PUSH2 0x480 MLOAD MULMOD SWAP1 SUB ADD MOD DUP2 PUSH2 0x404 CALLDATALOAD PUSH2 0x4A0 MLOAD MULMOD SWAP1 SUB ADD MOD DUP2 PUSH2 0x424 CALLDATALOAD PUSH2 0x4C0 MLOAD MULMOD SWAP1 SUB ADD MOD DUP2 PUSH2 0x444 CALLDATALOAD PUSH2 0x4E0 MLOAD MULMOD SWAP1 SUB ADD MOD DUP2 PUSH2 0x464 CALLDATALOAD PUSH2 0x500 MLOAD MULMOD SWAP1 SUB ADD MOD DUP2 PUSH2 0x484 CALLDATALOAD PUSH2 0x520 MLOAD MULMOD SWAP1 SUB ADD MOD DUP2 PUSH2 0x4A4 CALLDATALOAD PUSH2 0x540 MLOAD MULMOD SWAP1 SUB ADD MOD DUP2 PUSH2 0x4C4 CALLDATALOAD PUSH2 0x560 MLOAD MULMOD SWAP1 SUB ADD MOD DUP2 PUSH2 0x4E4 CALLDATALOAD PUSH2 0x580 MLOAD MULMOD SWAP1 SUB ADD MOD DUP2 PUSH2 0x504 CALLDATALOAD PUSH2 0x5A0 MLOAD MULMOD SWAP1 SUB ADD MOD DUP2 PUSH2 0x524 CALLDATALOAD PUSH2 0x5C0 MLOAD MULMOD SWAP1 SUB ADD MOD DUP2 PUSH2 0x544 CALLDATALOAD PUSH2 0x5E0 MLOAD MULMOD SWAP1 SUB ADD MOD DUP2 PUSH2 0x564 CALLDATALOAD PUSH2 0x600 MLOAD MULMOD SWAP1 SUB ADD MOD DUP2 PUSH2 0x584 CALLDATALOAD PUSH2 0x620 MLOAD MULMOD SWAP1 SUB ADD MOD DUP2 PUSH2 0x5A4 CALLDATALOAD PUSH2 0x640 MLOAD MULMOD SWAP1 SUB ADD MOD DUP2 PUSH2 0x5C4 CALLDATALOAD PUSH2 0x660 MLOAD MULMOD SWAP1 SUB ADD MOD DUP2 PUSH2 0x5E4 CALLDATALOAD PUSH2 0x680 MLOAD MULMOD SWAP1 SUB ADD MOD DUP2 PUSH2 0x604 CALLDATALOAD PUSH2 0x6A0 MLOAD MULMOD SWAP1 SUB ADD MOD DUP2 PUSH2 0x624 CALLDATALOAD PUSH2 0x6C0 MLOAD MULMOD SWAP1 SUB ADD MOD DUP2 PUSH2 0x644 CALLDATALOAD PUSH2 0x6E0 MLOAD MULMOD SWAP1 SUB ADD MOD DUP2 PUSH2 0x664 CALLDATALOAD PUSH2 0x700 MLOAD MULMOD SWAP1 SUB ADD MOD DUP2 PUSH2 0x684 CALLDATALOAD PUSH2 0x720 MLOAD MULMOD SWAP1 SUB ADD MOD DUP2 PUSH2 0x6A4 CALLDATALOAD PUSH2 0x740 MLOAD MULMOD SWAP1 SUB ADD MOD DUP2 PUSH2 0x6C4 CALLDATALOAD PUSH2 0x760 MLOAD MULMOD SWAP1 SUB ADD MOD DUP2 PUSH2 0x6E4 CALLDATALOAD PUSH2 0x780 MLOAD MULMOD SWAP1 SUB ADD MOD DUP2 PUSH2 0x704 CALLDATALOAD PUSH2 0x7A0 MLOAD MULMOD SWAP1 SUB ADD MOD DUP2 PUSH2 0x724 CALLDATALOAD PUSH2 0x7C0 MLOAD MULMOD SWAP1 SUB ADD MOD DUP2 PUSH2 0x744 CALLDATALOAD PUSH2 0x7E0 MLOAD MULMOD SWAP1 SUB ADD MOD DUP2 PUSH2 0x764 CALLDATALOAD PUSH2 0x800 MLOAD MULMOD SWAP1 SUB ADD MOD DUP2 PUSH2 0x784 CALLDATALOAD PUSH2 0x820 MLOAD MULMOD SWAP1 SUB ADD MOD DUP2 PUSH2 0x7A4 CALLDATALOAD PUSH2 0x840 MLOAD MULMOD SWAP1 SUB ADD MOD DUP2 PUSH2 0x7C4 CALLDATALOAD PUSH2 0x860 MLOAD MULMOD SWAP1 SUB ADD MOD DUP2 PUSH2 0x7E4 CALLDATALOAD PUSH2 0x880 MLOAD MULMOD SWAP1 SUB ADD MOD DUP2 PUSH2 0x804 CALLDATALOAD PUSH2 0x8A0 MLOAD MULMOD SWAP1 SUB ADD MOD DUP2 PUSH2 0x824 CALLDATALOAD PUSH2 0x8C0 MLOAD MULMOD SWAP1 SUB ADD MOD DUP2 PUSH2 0x844 CALLDATALOAD PUSH2 0x8E0 MLOAD MULMOD SWAP1 SUB ADD MOD DUP2 PUSH2 0x864 CALLDATALOAD PUSH2 0x900 MLOAD MULMOD SWAP1 SUB ADD MOD DUP2 PUSH2 0x884 CALLDATALOAD PUSH2 0x920 MLOAD MULMOD SWAP1 SUB ADD MOD DUP2 PUSH2 0x8A4 CALLDATALOAD PUSH2 0x940 MLOAD MULMOD SWAP1 SUB ADD MOD DUP2 PUSH2 0x8C4 CALLDATALOAD PUSH2 0x960 MLOAD MULMOD SWAP1 SUB ADD MOD DUP2 PUSH2 0x8E4 CALLDATALOAD PUSH2 0x980 MLOAD MULMOD SWAP1 SUB ADD MOD DUP2 PUSH2 0x904 CALLDATALOAD PUSH2 0x9A0 MLOAD MULMOD SWAP1 SUB ADD MOD DUP2 PUSH2 0x924 CALLDATALOAD PUSH2 0x9C0 MLOAD MULMOD SWAP1 SUB ADD MOD DUP2 PUSH2 0x944 CALLDATALOAD PUSH2 0x9E0 MLOAD MULMOD SWAP1 SUB ADD MOD DUP2 PUSH2 0x964 CALLDATALOAD PUSH2 0xA00 MLOAD MULMOD SWAP1 SUB ADD MOD DUP2 PUSH2 0x984 CALLDATALOAD PUSH2 0xA20 MLOAD MULMOD SWAP1 SUB ADD MOD DUP2 PUSH2 0x9A4 CALLDATALOAD PUSH2 0xA40 MLOAD MULMOD SWAP1 SUB ADD MOD DUP2 PUSH2 0x9C4 CALLDATALOAD PUSH2 0xA60 MLOAD MULMOD SWAP1 SUB ADD MOD DUP2 PUSH2 0x9E4 CALLDATALOAD PUSH2 0xA80 MLOAD MULMOD SWAP1 SUB ADD MOD DUP2 PUSH2 0xA04 CALLDATALOAD PUSH2 0xAA0 MLOAD MULMOD SWAP1 SUB ADD MOD DUP2 PUSH2 0xA24 CALLDATALOAD PUSH2 0xAC0 MLOAD MULMOD SWAP1 SUB ADD MOD DUP2 PUSH2 0xA44 CALLDATALOAD PUSH2 0xAE0 MLOAD MULMOD SWAP1 SUB ADD MOD DUP2 PUSH2 0xA64 CALLDATALOAD PUSH2 0xB00 MLOAD MULMOD SWAP1 SUB ADD MOD DUP2 PUSH2 0xA84 CALLDATALOAD PUSH2 0xB20 MLOAD MULMOD SWAP1 SUB ADD MOD DUP2 PUSH2 0xAA4 CALLDATALOAD PUSH2 0xB40 MLOAD MULMOD SWAP1 SUB ADD MOD DUP2 PUSH2 0xAC4 CALLDATALOAD PUSH2 0xB60 MLOAD MULMOD SWAP1 SUB ADD MOD DUP2 PUSH2 0xAE4 CALLDATALOAD PUSH2 0xB80 MLOAD MULMOD SWAP1 SUB ADD MOD DUP2 PUSH2 0xB04 CALLDATALOAD PUSH2 0xBA0 MLOAD MULMOD SWAP1 SUB ADD MOD DUP2 PUSH2 0xB24 CALLDATALOAD PUSH2 0xBC0 MLOAD MULMOD SWAP1 SUB ADD MOD DUP2 PUSH2 0xB44 CALLDATALOAD PUSH2 0xBE0 MLOAD MULMOD SWAP1 SUB ADD MOD DUP2 PUSH2 0xB64 CALLDATALOAD PUSH2 0xC00 MLOAD MULMOD SWAP1 SUB ADD MOD DUP2 PUSH2 0xB84 CALLDATALOAD PUSH2 0xC20 MLOAD MULMOD SWAP1 SUB ADD MOD DUP2 PUSH2 0xBA4 CALLDATALOAD PUSH2 0xC40 MLOAD MULMOD SWAP1 SUB ADD MOD PUSH2 0x200 MSTORE JUMP JUMPDEST PUSH2 0x200 MLOAD PUSH1 0x0 DUP1 MLOAD PUSH1 0x20 PUSH2 0x3379 DUP4 CODECOPY DUP2 MLOAD SWAP2 MSTORE SWAP1 DUP2 DUP1 PUSH2 0x340 MLOAD PUSH2 0x3A0 MLOAD MULMOD SWAP2 DUP2 DUP1 DUP1 PUSH1 0xA0 MLOAD DUP2 PUSH1 0xC0 MLOAD SWAP2 DUP2 PUSH1 0x80 MLOAD SWAP4 DUP2 PUSH2 0x2E4 CALLDATALOAD SWAP4 DUP2 DUP1 DUP5 PUSH2 0x284 CALLDATALOAD ADDMOD SWAP4 DUP2 DUP1 DUP1 DUP4 DUP2 DUP1 PUSH2 0x2C4 CALLDATALOAD DUP10 MULMOD PUSH2 0x264 CALLDATALOAD ADDMOD ADDMOD SWAP5 PUSH2 0x2A4 CALLDATALOAD SWAP1 MULMOD PUSH2 0x244 CALLDATALOAD ADDMOD ADDMOD MULMOD MULMOD MULMOD MULMOD DUP2 SUB MOD SWAP4 DUP2 SUB MOD SWAP1 ADDMOD ADDMOD PUSH2 0x220 MSTORE JUMP JUMPDEST PUSH1 0x40 SWAP1 PUSH1 0x80 DUP3 MLOAD PUSH1 0x20 PUSH2 0x240 SWAP4 DUP5 MLOAD DUP4 MSTORE PUSH2 0x260 MLOAD DUP3 DUP5 ADD MSTORE DUP1 MLOAD DUP7 DUP5 ADD MSTORE ADD MLOAD PUSH1 0x60 DUP3 ADD MSTORE PUSH1 0x6 PUSH2 0x7CF NOT GAS ADD STATICCALL ISZERO PUSH2 0xA25 JUMPI JUMP JUMPDEST PUSH1 0x40 SWAP1 PUSH1 0x80 DUP3 MLOAD DUP3 MLOAD DUP2 MSTORE PUSH1 0x20 DUP4 ADD MLOAD PUSH1 0x20 DUP3 ADD MSTORE PUSH2 0x280 MLOAD DUP5 DUP3 ADD MSTORE PUSH2 0x2A0 MLOAD PUSH1 0x60 DUP3 ADD MSTORE PUSH1 0x6 PUSH2 0x7CF NOT GAS ADD STATICCALL ISZERO PUSH2 0xA25 JUMPI JUMP JUMPDEST PUSH1 0x40 SWAP1 PUSH1 0x80 DUP3 MLOAD DUP3 MLOAD DUP2 MSTORE PUSH1 0x20 DUP4 ADD MLOAD PUSH1 0x20 DUP3 ADD MSTORE PUSH2 0x2C0 MLOAD DUP5 DUP3 ADD MSTORE PUSH2 0x2E0 MLOAD PUSH1 0x60 DUP3 ADD MSTORE PUSH1 0x6 PUSH2 0x7CF NOT GAS ADD STATICCALL ISZERO PUSH2 0xA25 JUMPI JUMP JUMPDEST PUSH1 0x80 PUSH1 0x40 SWAP3 PUSH1 0x20 DUP5 MLOAD SWAP2 DUP5 MLOAD DUP4 MSTORE DUP2 DUP6 ADD MLOAD DUP3 DUP5 ADD MSTORE DUP1 MLOAD DUP7 DUP5 ADD MSTORE ADD MLOAD PUSH1 0x60 DUP3 ADD MSTORE PUSH1 0x6 PUSH2 0x7CF NOT GAS ADD STATICCALL ISZERO PUSH2 0xA25 JUMPI JUMP JUMPDEST PUSH1 0x40 MLOAD SWAP1 PUSH32 0xC739A90A4C08EDE904B4005BB29727F6F47E86FFE9F4B0AD8D91B7293F69177 DUP3 MSTORE PUSH32 0xA559483250BF77C5029A9BE97616F1776B12B61D45FC30FE6577BD956CC9C57 PUSH1 0x20 DUP4 ADD MSTORE PUSH1 0x40 DUP3 ADD SWAP1 DUP2 MSTORE PUSH2 0x7CF NOT PUSH1 0x40 DUP4 PUSH1 0x60 DUP2 PUSH1 0x7 DUP6 GAS ADD STATICCALL ISZERO PUSH2 0xA25 JUMPI PUSH1 0x40 SWAP3 PUSH1 0x6 PUSH1 0x80 SWAP3 PUSH2 0x240 SWAP5 DUP6 MLOAD SWAP1 MSTORE PUSH2 0x260 MLOAD PUSH1 0x60 DUP5 ADD MSTORE GAS ADD STATICCALL ISZERO PUSH2 0xA25 JUMPI JUMP JUMPDEST PUSH1 0x40 MLOAD SWAP1 PUSH32 0x26B6CD7727D0E2EA9B831A4DF456879B7A4787927770625B91572F8456698CDD DUP3 MSTORE PUSH32 0xF2AE08938010A69FC2FF8FC3973AC0CDDB80E838AFED52DE963D0098FD884D2 PUSH1 0x20 DUP4 ADD MSTORE PUSH1 0x40 DUP3 ADD SWAP1 DUP2 MSTORE PUSH2 0x7CF NOT PUSH1 0x40 DUP4 PUSH1 0x60 DUP2 PUSH1 0x7 DUP6 GAS ADD STATICCALL ISZERO PUSH2 0xA25 JUMPI PUSH1 0x40 SWAP3 PUSH1 0x6 PUSH1 0x80 SWAP3 PUSH2 0x240 SWAP5 DUP6 MLOAD SWAP1 MSTORE PUSH2 0x260 MLOAD PUSH1 0x60 DUP5 ADD MSTORE GAS ADD STATICCALL ISZERO PUSH2 0xA25 JUMPI JUMP JUMPDEST PUSH1 0x40 MLOAD SWAP1 PUSH32 0x2A69A88C4B674E5D918B7D26D134FF6CFFBB1723104891E5558A34D110703B2C DUP3 MSTORE PUSH32 0x99CAFB81BF75CB3B3B8043CC4A879A4395D7C21E68FE264A9A6FAE0BB2E0731 PUSH1 0x20 DUP4 ADD MSTORE PUSH1 0x40 DUP3 ADD SWAP1 DUP2 MSTORE PUSH2 0x7CF NOT PUSH1 0x40 DUP4 PUSH1 0x60 DUP2 PUSH1 0x7 DUP6 GAS ADD STATICCALL ISZERO PUSH2 0xA25 JUMPI PUSH1 0x40 SWAP3 PUSH1 0x6 PUSH1 0x80 SWAP3 PUSH2 0x240 SWAP5 DUP6 MLOAD SWAP1 MSTORE PUSH2 0x260 MLOAD PUSH1 0x60 DUP5 ADD MSTORE GAS ADD STATICCALL ISZERO PUSH2 0xA25 JUMPI JUMP JUMPDEST PUSH1 0x40 MLOAD SWAP1 PUSH32 0x155E43437CABE7380A36DAD36E811D82DB73C35427D3B31B2F66A9C08CB8FE89 DUP3 MSTORE PUSH32 0x2A4D0A2F38844C678569EBFA8F7EFA6A35FB6BF6B462EB48360859EFE64536C6 PUSH1 0x20 DUP4 ADD MSTORE PUSH1 0x40 DUP3 ADD SWAP1 DUP2 MSTORE PUSH2 0x7CF NOT PUSH1 0x40 DUP4 PUSH1 0x60 DUP2 PUSH1 0x7 DUP6 GAS ADD STATICCALL ISZERO PUSH2 0xA25 JUMPI PUSH1 0x40 SWAP3 PUSH1 0x6 PUSH1 0x80 SWAP3 PUSH2 0x240 SWAP5 DUP6 MLOAD SWAP1 MSTORE PUSH2 0x260 MLOAD PUSH1 0x60 DUP5 ADD MSTORE GAS ADD STATICCALL ISZERO PUSH2 0xA25 JUMPI JUMP JUMPDEST PUSH1 0x40 MLOAD SWAP1 PUSH32 0x15B76FED0AC8F1D6E459DA90BE39D050E389C9945DEBFEDF26A9AF1ACE4F51C2 DUP3 MSTORE PUSH32 0x1061F6F6E767CB48B7F745A7BE53721DE0964D6A7C35559BB8ABDCC155D82F6E PUSH1 0x20 DUP4 ADD MSTORE PUSH1 0x40 DUP3 ADD SWAP1 DUP2 MSTORE PUSH2 0x7CF NOT PUSH1 0x40 DUP4 PUSH1 0x60 DUP2 PUSH1 0x7 DUP6 GAS ADD STATICCALL ISZERO PUSH2 0xA25 JUMPI PUSH1 0x40 SWAP3 PUSH1 0x6 PUSH1 0x80 SWAP3 PUSH2 0x280 SWAP5 DUP6 MLOAD SWAP1 MSTORE PUSH2 0x2A0 MLOAD PUSH1 0x60 DUP5 ADD MSTORE GAS ADD STATICCALL ISZERO PUSH2 0xA25 JUMPI JUMP JUMPDEST SWAP2 SWAP1 PUSH1 0x40 MLOAD SWAP3 DUP4 MSTORE PUSH1 0x20 DUP4 ADD MSTORE PUSH1 0x40 DUP3 ADD SWAP1 DUP2 MSTORE PUSH2 0x7CF NOT PUSH1 0x40 DUP4 PUSH1 0x60 DUP2 PUSH1 0x7 DUP6 GAS ADD STATICCALL ISZERO PUSH2 0xA25 JUMPI PUSH1 0x40 SWAP3 PUSH1 0x6 PUSH1 0x80 SWAP3 PUSH2 0x280 SWAP5 DUP6 MLOAD SWAP1 MSTORE PUSH2 0x2A0 MLOAD PUSH1 0x60 DUP5 ADD MSTORE GAS ADD STATICCALL ISZERO PUSH2 0xA25 JUMPI JUMP JUMPDEST SWAP2 PUSH1 0x40 MLOAD SWAP2 DUP3 MSTORE PUSH1 0x20 DUP3 ADD MSTORE PUSH1 0x40 DUP2 ADD SWAP3 DUP4 MSTORE PUSH2 0x7CF NOT SWAP1 PUSH1 0x40 DUP2 PUSH1 0x60 DUP2 PUSH1 0x7 DUP7 GAS ADD STATICCALL ISZERO PUSH2 0xA25 JUMPI PUSH1 0x6 PUSH1 0x80 SWAP3 PUSH1 0x40 SWAP6 DUP6 MLOAD SWAP1 MSTORE PUSH1 0x20 DUP6 ADD MLOAD PUSH1 0x60 DUP5 ADD MSTORE GAS ADD STATICCALL ISZERO PUSH2 0xA25 JUMPI JUMP JUMPDEST PUSH1 0x60 PUSH1 0x40 SWAP3 DUP4 MLOAD SWAP1 PUSH32 0x1C435F833D6B71739E0D200D27DCA10160533269D4550A1042D02AC034B9A690 DUP3 MSTORE PUSH32 0x20393615F5C7E74249FB870FEE140E74F3E47681D425CC2EF69416DE40F27558 PUSH1 0x20 DUP4 ADD MSTORE DUP5 DUP3 ADD MSTORE PUSH1 0x7 PUSH2 0x7CF NOT GAS ADD STATICCALL ISZERO PUSH2 0xA25 JUMPI JUMP JUMPDEST SWAP2 SWAP1 PUSH1 0x40 SWAP4 PUSH1 0x60 SWAP3 DUP6 MLOAD SWAP3 DUP4 MSTORE PUSH1 0x20 DUP4 ADD MSTORE DUP5 DUP3 ADD MSTORE PUSH1 0x7 PUSH2 0x7CF NOT GAS ADD STATICCALL ISZERO PUSH2 0xA25 JUMPI JUMP JUMPDEST PUSH1 0x20 DUP3 ADD MLOAD SWAP2 MLOAD PUSH2 0x2D02 SWAP4 SWAP3 SWAP2 PUSH2 0x2CCA JUMP JUMPDEST JUMP JUMPDEST PUSH2 0x2D02 PUSH1 0xC0 MLOAD PUSH2 0x2EEF PUSH1 0x40 MLOAD SWAP2 PUSH2 0x2EEF PUSH2 0x100 SWAP4 DUP5 DUP2 ADD PUSH1 0x40 MSTORE PUSH2 0x2D6D PUSH32 0x2D6AE14CA6E1E55E808AD564DC250451C8F3BB839FB5B975D39496C9A91EC102 PUSH2 0x240 MSTORE PUSH32 0x76832DD56494DD4C64E39691E8822401679B6A91527BC8C85803A1DC86FDEBB PUSH2 0x260 MSTORE JUMP JUMPDEST PUSH2 0x2E9F PUSH1 0x0 DUP1 MLOAD PUSH1 0x20 PUSH2 0x3379 DUP4 CODECOPY DUP2 MLOAD SWAP2 MSTORE PUSH2 0x2D91 DUP2 PUSH2 0x264 CALLDATALOAD PUSH2 0x244 CALLDATALOAD MULMOD PUSH2 0x2914 JUMP JUMPDEST PUSH2 0x2D9D PUSH2 0x244 CALLDATALOAD PUSH2 0x29A0 JUMP JUMPDEST PUSH2 0x2DA9 PUSH2 0x264 CALLDATALOAD PUSH2 0x2A2C JUMP JUMPDEST PUSH2 0x2DB5 PUSH2 0x284 CALLDATALOAD PUSH2 0x2AB8 JUMP JUMPDEST PUSH2 0x2E1F PUSH2 0x120 MLOAD DUP3 PUSH1 0x80 MLOAD SWAP2 DUP2 DUP1 PUSH2 0x340 MLOAD PUSH2 0x3A0 MLOAD MULMOD DUP2 PUSH1 0xC0 DUP11 ADD SWAP6 PUSH2 0x2DE5 DUP8 PUSH1 0xC4 CALLDATALOAD DUP2 MSTORE PUSH1 0x20 PUSH1 0xE4 CALLDATALOAD SWAP2 ADD MSTORE JUMP JUMPDEST DUP2 DUP14 DUP2 PUSH2 0x1E0 MLOAD SWAP8 DUP2 DUP1 DUP5 DUP2 DUP1 PUSH1 0x3 DUP7 MULMOD PUSH2 0x284 CALLDATALOAD ADDMOD ADDMOD SWAP4 DUP2 DUP1 DUP3 DUP2 DUP1 PUSH1 0x2 DUP9 MULMOD PUSH2 0x264 CALLDATALOAD ADDMOD ADDMOD SWAP4 PUSH2 0x244 CALLDATALOAD ADDMOD ADDMOD MULMOD MULMOD MULMOD ADDMOD ADDMOD SWAP1 DUP6 PUSH2 0x2CF0 JUMP JUMPDEST PUSH2 0x2E61 DUP2 PUSH1 0xA0 MLOAD DUP2 DUP1 PUSH2 0x2E4 CALLDATALOAD DUP2 DUP5 PUSH1 0x80 MLOAD MULMOD MULMOD SWAP2 DUP2 PUSH1 0x40 DUP10 ADD SWAP11 DUP2 DUP1 DUP1 DUP4 DUP2 DUP1 PUSH2 0x2C4 CALLDATALOAD DUP10 MULMOD PUSH2 0x264 CALLDATALOAD ADDMOD ADDMOD SWAP5 PUSH2 0x2A4 CALLDATALOAD SWAP1 MULMOD PUSH2 0x244 CALLDATALOAD ADDMOD ADDMOD MULMOD MULMOD DUP7 PUSH2 0x2C65 JUMP JUMPDEST PUSH1 0x80 DUP4 ADD SWAP7 PUSH2 0x2E7B DUP9 PUSH2 0x104 CALLDATALOAD DUP2 MSTORE PUSH1 0x20 PUSH2 0x124 CALLDATALOAD SWAP2 ADD MSTORE JUMP JUMPDEST PUSH2 0x2E8E DUP2 MLOAD PUSH2 0x164 CALLDATALOAD PUSH2 0x144 CALLDATALOAD DUP12 PUSH2 0x2C1C JUMP JUMPDEST MLOAD DUP1 MULMOD PUSH2 0x1A4 CALLDATALOAD PUSH2 0x184 CALLDATALOAD DUP9 PUSH2 0x2C1C JUMP JUMPDEST PUSH2 0x360 MLOAD PUSH2 0x2EB5 PUSH1 0xA0 DUP4 ADD SWAP2 DUP3 MLOAD DUP9 MLOAD DUP10 PUSH2 0x2CCA JUMP JUMPDEST PUSH1 0x60 DUP3 ADD PUSH32 0x30644E72E131A029B85045B68181585D97816A916871CA8D3C208C16D87CFD47 SWAP1 DUP2 DUP2 MLOAD DUP2 SUB MOD SWAP1 MSTORE DUP2 MLOAD DUP2 SUB MOD SWAP1 MSTORE PUSH2 0x283F JUMP JUMPDEST PUSH2 0x283F JUMP JUMPDEST PUSH2 0x240 MLOAD PUSH2 0x280 SWAP1 DUP2 MSTORE PUSH2 0x260 MLOAD SWAP1 PUSH2 0x2A0 SWAP2 DUP3 MSTORE PUSH2 0x2F1B PUSH2 0x140 MLOAD PUSH1 0x24 CALLDATALOAD PUSH1 0x4 CALLDATALOAD PUSH2 0x2BD0 JUMP JUMPDEST PUSH2 0x2F2D PUSH2 0x160 MLOAD PUSH1 0x64 CALLDATALOAD PUSH1 0x44 CALLDATALOAD PUSH2 0x2BD0 JUMP JUMPDEST PUSH2 0x2F3F PUSH2 0x180 MLOAD PUSH1 0xA4 CALLDATALOAD PUSH1 0x84 CALLDATALOAD PUSH2 0x2BD0 JUMP JUMPDEST PUSH2 0x1A0 MLOAD SWAP2 PUSH1 0x40 MLOAD PUSH32 0x2E5EF81C197058F5DC62B9F3EAD75813BD9DB12098DEA5B0C4D1D7AA091B4D39 DUP2 MSTORE PUSH32 0x13BDC30C7F44781FE99C2834CD947C0367F5B88A250D74C20428FCAED40BBAC0 PUSH1 0x20 DUP3 ADD MSTORE PUSH1 0x40 DUP2 ADD SWAP4 DUP5 MSTORE PUSH2 0x7CF NOT SWAP4 PUSH1 0x40 DUP3 PUSH1 0x60 DUP2 PUSH1 0x7 DUP10 GAS ADD STATICCALL ISZERO PUSH2 0xA25 JUMPI PUSH1 0x40 SWAP5 PUSH1 0x80 SWAP4 PUSH1 0x6 SWAP3 DUP7 MLOAD SWAP1 MSTORE MLOAD PUSH1 0x60 DUP5 ADD MSTORE GAS ADD STATICCALL ISZERO PUSH2 0xA25 JUMPI PUSH2 0x2D02 PUSH2 0x1C0 MLOAD PUSH2 0x2B44 JUMP JUMPDEST PUSH2 0x220 MLOAD PUSH1 0x0 DUP1 MLOAD PUSH1 0x20 PUSH2 0x3379 DUP4 CODECOPY DUP2 MLOAD SWAP2 MSTORE SUB PUSH1 0x0 DUP1 MLOAD PUSH1 0x20 PUSH2 0x3379 DUP4 CODECOPY DUP2 MLOAD SWAP2 MSTORE SWAP1 MOD PUSH2 0x140 MLOAD PUSH2 0x160 MLOAD PUSH2 0x180 MLOAD PUSH2 0x1A0 MLOAD SWAP2 PUSH2 0x1C0 MLOAD SWAP4 PUSH2 0x1E0 MLOAD SWAP6 PUSH1 0x40 MLOAD SWAP7 PUSH1 0x1 DUP9 MSTORE PUSH1 0x20 DUP9 ADD PUSH1 0x2 SWAP1 MSTORE PUSH2 0x2E4 CALLDATALOAD SWAP1 PUSH1 0x0 DUP1 MLOAD PUSH1 0x20 PUSH2 0x3379 DUP4 CODECOPY DUP2 MLOAD SWAP2 MSTORE SWAP2 MULMOD SWAP6 PUSH1 0x0 DUP1 MLOAD PUSH1 0x20 PUSH2 0x3379 DUP4 CODECOPY DUP2 MLOAD SWAP2 MSTORE SWAP1 PUSH2 0x2C4 CALLDATALOAD MULMOD SWAP5 PUSH1 0x0 DUP1 MLOAD PUSH1 0x20 PUSH2 0x3379 DUP4 CODECOPY DUP2 MLOAD SWAP2 MSTORE SWAP1 PUSH2 0x2A4 CALLDATALOAD MULMOD SWAP4 PUSH1 0x0 DUP1 MLOAD PUSH1 0x20 PUSH2 0x3379 DUP4 CODECOPY DUP2 MLOAD SWAP2 MSTORE SWAP1 PUSH2 0x284 CALLDATALOAD MULMOD SWAP3 PUSH1 0x0 DUP1 MLOAD PUSH1 0x20 PUSH2 0x3379 DUP4 CODECOPY DUP2 MLOAD SWAP2 MSTORE SWAP1 PUSH2 0x264 CALLDATALOAD MULMOD SWAP2 PUSH1 0x0 DUP1 MLOAD PUSH1 0x20 PUSH2 0x3379 DUP4 CODECOPY DUP2 MLOAD SWAP2 MSTORE SWAP1 PUSH2 0x244 CALLDATALOAD MULMOD PUSH1 0x0 DUP1 MLOAD PUSH1 0x20 PUSH2 0x3379 DUP4 CODECOPY DUP2 MLOAD SWAP2 MSTORE SWAP2 ADDMOD SWAP1 PUSH1 0x0 DUP1 MLOAD PUSH1 0x20 PUSH2 0x3379 DUP4 CODECOPY DUP2 MLOAD SWAP2 MSTORE SWAP2 ADDMOD SWAP1 PUSH1 0x0 DUP1 MLOAD PUSH1 0x20 PUSH2 0x3379 DUP4 CODECOPY DUP2 MLOAD SWAP2 MSTORE SWAP2 ADDMOD SWAP1 PUSH1 0x0 DUP1 MLOAD PUSH1 0x20 PUSH2 0x3379 DUP4 CODECOPY DUP2 MLOAD SWAP2 MSTORE SWAP2 ADDMOD SWAP1 PUSH1 0x0 DUP1 MLOAD PUSH1 0x20 PUSH2 0x3379 DUP4 CODECOPY DUP2 MLOAD SWAP2 MSTORE SWAP2 ADDMOD SWAP1 PUSH1 0x0 DUP1 MLOAD PUSH1 0x20 PUSH2 0x3379 DUP4 CODECOPY DUP2 MLOAD SWAP2 MSTORE SWAP2 ADDMOD PUSH1 0x40 DUP3 ADD MSTORE PUSH2 0x7CF NOT GAS ADD PUSH1 0x60 PUSH1 0x40 SWAP3 PUSH1 0x7 PUSH2 0x2C0 SWAP4 STATICCALL ISZERO PUSH2 0xA25 JUMPI JUMP JUMPDEST PUSH1 0x40 MLOAD PUSH2 0x240 DUP2 ADD PUSH1 0x40 MSTORE PUSH1 0x20 DUP2 PUSH2 0x180 PUSH2 0x32CC DUP2 DUP4 ADD PUSH2 0x1C0 DUP5 ADD PUSH2 0x32B3 PUSH2 0x200 DUP7 ADD PUSH2 0x316A DUP5 PUSH2 0x1C4 CALLDATALOAD DUP2 MSTORE PUSH1 0x20 PUSH2 0x1E4 CALLDATALOAD SWAP2 ADD MSTORE JUMP JUMPDEST PUSH2 0x204 CALLDATALOAD DUP4 MSTORE PUSH2 0x224 CALLDATALOAD PUSH1 0x20 DUP5 ADD MSTORE PUSH2 0x32AD PUSH2 0x1E0 SWAP4 PUSH2 0x318C DUP6 MLOAD DUP3 DUP12 PUSH2 0x2CF0 JUMP JUMPDEST PUSH2 0x3196 DUP7 DUP11 PUSH2 0x28E1 JUMP JUMPDEST DUP10 DUP10 ADD SWAP5 PUSH32 0x30644E72E131A029B85045B68181585D97816A916871CA8D3C208C16D87CFD47 SWAP6 DUP7 DUP2 MLOAD DUP2 SUB MOD SWAP1 MSTORE PUSH32 0x26186A2D65EE4D2F9C9A5B91F86597D35F192CD120CAF7E935D8443D1938E23D PUSH1 0x40 DUP12 ADD MSTORE PUSH32 0x30441FD1B5D3370482C42152A8899027716989A6996C2535BC9F7FEE8AAEF79E PUSH1 0x60 DUP12 ADD MSTORE PUSH32 0x1970EA81DD6992ADFBC571EFFB03503ADBBB6A857F578403C6C40E22D65B3C02 PUSH1 0x80 DUP12 ADD MSTORE PUSH32 0x54793348F12C0CF5622C340573CB277586319DE359AB9389778F689786B1E48 PUSH1 0xA0 DUP12 ADD MSTORE PUSH2 0x326D PUSH1 0xE0 MLOAD PUSH1 0xC0 DUP13 ADD SWAP9 DUP10 PUSH2 0x2CF0 JUMP JUMPDEST PUSH32 0x931D596DE2FD10F01DDD073FD5A90A976F169C76F039BB91C4775720042D43A PUSH1 0x0 DUP1 MLOAD PUSH1 0x20 PUSH2 0x3379 DUP4 CODECOPY DUP2 MLOAD SWAP2 MSTORE DUP1 SWAP3 PUSH1 0xE0 MLOAD SWAP1 MLOAD MULMOD MULMOD SWAP1 DUP4 PUSH2 0x2CF0 JUMP JUMPDEST DUP4 PUSH2 0x28E1 JUMP JUMPDEST PUSH2 0x32BC DUP3 PUSH2 0x2875 JUMP JUMPDEST PUSH2 0x2E0 SWAP1 DUP2 MLOAD DUP2 SUB MOD SWAP1 MSTORE PUSH2 0x28AB JUMP JUMPDEST PUSH32 0x198E9393920D483A7260BFB731FB5D25F1AA493335A9E71297E485B7AEF312C2 PUSH2 0x100 DUP4 ADD MSTORE PUSH32 0x1800DEEF121F1E76426A00665E5C4479674322D4F75EDADD46DEBD5CD992F6ED PUSH2 0x120 DUP4 ADD MSTORE PUSH32 0x90689D0585FF075EC9E99AD690C3395BC4B313370B38EF355ACDADCD122975B PUSH2 0x140 DUP4 ADD MSTORE PUSH32 0x12C85EA5DB8C6DEB4AAB71808DCB408FE3D1E7690C43D37B4CE6CC0166FA7DAA PUSH2 0x160 DUP4 ADD MSTORE DUP2 PUSH1 0x8 PUSH2 0x7CF NOT GAS ADD STATICCALL SWAP1 MLOAD AND SWAP1 JUMP INVALID ADDRESS PUSH5 0x4E72E131A0 0x29 0xB8 POP GASLIMIT 0xB6 DUP2 DUP2 PC 0x5D 0x28 CALLER 0xE8 BASEFEE PUSH26 0xB9709143E1F593F0000001A26469706673582212203E22C92AD5 SWAP13 MUL OR 0xAE INVALID 0xAF SLOAD 0xDE 0xA9 SELFDESTRUCT 0xBD SWAP13 0xFC SLOAD DELEGATECALL DIV 0xD5 PUSH9 0xB80FA78E29E031925F PUSH5 0x736F6C6343 STOP ADDMOD EQ STOP CALLER "},"methodIdentifiers":{"verifyProof(uint256[24],uint256[70])":"b36ccadc"}}}}}