{
  "_format": "hh-sol-artifact-1",
  "contractName": "MoneroBridgeDLEQ",
  "sourceName": "contracts/MoneroBridgeDLEQ.sol",
  "abi": [
    {
      "inputs": [
        {
          "internalType": "address",
          "name": "_verifier",
          "type": "address"
        }
      ],
      "stateMutability": "nonpayable",
      "type": "constructor"
    },
    {
      "anonymous": false,
      "inputs": [
        {
          "indexed": true,
          "internalType": "bytes32",
          "name": "outputId",
          "type": "bytes32"
        },
        {
          "indexed": true,
          "internalType": "address",
          "name": "recipient",
          "type": "address"
        },
        {
          "indexed": false,
          "internalType": "uint256",
          "name": "amount",
          "type": "uint256"
        }
      ],
      "name": "BridgeProofVerified",
      "type": "event"
    },
    {
      "anonymous": false,
      "inputs": [
        {
          "indexed": false,
          "internalType": "bytes32",
          "name": "R_x",
          "type": "bytes32"
        },
        {
          "indexed": false,
          "internalType": "bytes32",
          "name": "S_x",
          "type": "bytes32"
        },
        {
          "indexed": false,
          "internalType": "bytes32",
          "name": "P_compressed",
          "type": "bytes32"
        }
      ],
      "name": "Ed25519Verified",
      "type": "event"
    },
    {
      "inputs": [
        {
          "internalType": "bytes32",
          "name": "outputId",
          "type": "bytes32"
        }
      ],
      "name": "isOutputUsed",
      "outputs": [
        {
          "internalType": "bool",
          "name": "",
          "type": "bool"
        }
      ],
      "stateMutability": "view",
      "type": "function"
    },
    {
      "inputs": [
        {
          "internalType": "bytes32",
          "name": "",
          "type": "bytes32"
        }
      ],
      "name": "usedOutputs",
      "outputs": [
        {
          "internalType": "bool",
          "name": "",
          "type": "bool"
        }
      ],
      "stateMutability": "view",
      "type": "function"
    },
    {
      "inputs": [],
      "name": "verifier",
      "outputs": [
        {
          "internalType": "contract IVerifier",
          "name": "",
          "type": "address"
        }
      ],
      "stateMutability": "view",
      "type": "function"
    },
    {
      "inputs": [
        {
          "internalType": "uint256[8]",
          "name": "proof",
          "type": "uint256[8]"
        },
        {
          "internalType": "uint256[6]",
          "name": "publicSignals",
          "type": "uint256[6]"
        },
        {
          "components": [
            {
              "internalType": "uint256",
              "name": "c",
              "type": "uint256"
            },
            {
              "internalType": "uint256",
              "name": "s",
              "type": "uint256"
            },
            {
              "internalType": "uint256",
              "name": "K1_x",
              "type": "uint256"
            },
            {
              "internalType": "uint256",
              "name": "K1_y",
              "type": "uint256"
            },
            {
              "internalType": "uint256",
              "name": "K2_x",
              "type": "uint256"
            },
            {
              "internalType": "uint256",
              "name": "K2_y",
              "type": "uint256"
            }
          ],
          "internalType": "struct MoneroBridgeDLEQ.DLEQProof",
          "name": "dleqProof",
          "type": "tuple"
        },
        {
          "components": [
            {
              "internalType": "uint256",
              "name": "G_x",
              "type": "uint256"
            },
            {
              "internalType": "uint256",
              "name": "G_y",
              "type": "uint256"
            },
            {
              "internalType": "uint256",
              "name": "A_x",
              "type": "uint256"
            },
            {
              "internalType": "uint256",
              "name": "A_y",
              "type": "uint256"
            },
            {
              "internalType": "uint256",
              "name": "B_x",
              "type": "uint256"
            },
            {
              "internalType": "uint256",
              "name": "B_y",
              "type": "uint256"
            },
            {
              "internalType": "uint256",
              "name": "H_s",
              "type": "uint256"
            }
          ],
          "internalType": "struct MoneroBridgeDLEQ.Ed25519Proof",
          "name": "ed25519Proof",
          "type": "tuple"
        }
      ],
      "name": "verifyAndMint",
      "outputs": [],
      "stateMutability": "nonpayable",
      "type": "function"
    }
  ],
  "bytecode": "0x60a03461007257601f610a8c38819003918201601f19168301916001600160401b038311848410176100775780849260209460405283398101031261007257516001600160a01b03811690819003610072576080526040516109fe908161008e823960805181818160bd015261023f0152f35b600080fd5b634e487b7160e01b600052604160045260246000fdfe6080604081815260048036101561001557600080fd5b600092833560e01c9081630e68e5ce146100f0575080632b7ac3f3146100a8578063a43c69db1461007d5763e0d5b8cc1461004f57600080fd5b34610079576020366003190112610079578160209360ff9235815280855220541690519015158152f35b8280fd5b5034610079576020366003190112610079578160209360ff9235815280855220541690519015158152f35b5050346100ec57816003193601126100ec57517f00000000000000000000000000000000000000000000000000000000000000006001600160a01b03168152602090f35b5080fd5b91849150346100ec576103603660031901126100ec5761010493368511610079576101c4943686116106185760c0366101c31901126106185760e03661028319011261061857916101408561061c565b8035855260249560209487358688015283519461015c8661061c565b8451926101688461061c565b6044998a35855260649485358a820152885286516101858161061c565b608435815260a4358a820152898901528651946101a18661061c565b60c435865260e4358a870152875163f398789b60e01b81529a6101c790888d019061066a565b8b8b01989685995b6002808c101561021a578a8d918b51848b905b8382106101fc57505050506001920199019a0199976101cf565b82945094809193956001935181520193019101908f93918e936101e2565b5050918a9189938d8f996102329060c483019061066a565b60c08880830137848188817f00000000000000000000000000000000000000000000000000000000000000006001600160a01b03165afa90811561060e5789916105ab575b501561057a579087939291610284359661032a6102a4359188519a61029b8c61061c565b8a8c5283888d01528951916102af8361061c565b6102c43583526102e435898401528a51916102c98361061c565b359c8d83528a8a8401528b516102de8161061c565b610124359b8c82528b8201528c51936102f68561061c565b610204358552610224358c8601528d51956103108761061c565b610244358752610264358d8801526101e435943593610692565b156105465786519761033b8961061c565b88528488015285519661034d8861061c565b610304358852610324358589015286516103668161061c565b8a8661038c610144359b8c85528285019384526103876103443580976108e4565b6107ff565b9283519051149283610537575b505050156104f85786518581019165185b5bdd5b9d60d21b83526026820152602681526103c58161064e565b51902060c01c99610184359a8b036104c5578651858101908a825289898201528881526103f18161064e565b51902093848b528a865260ff888c2054166104905750505050917fba20cafe06d609214664dffaf8f92ba828a6fecd3cedcd25b4719dce30d9048a9593918884606097958a52898352848a20600160ff1982541617905567ffffffffffffffff85519216610164351882527f8811769d1b8ad6b8d0e48cbdb48833dc26328110a9474690b08ff030479e49fd833393a38251948552840152820152a180f35b875162461bcd60e51b81529283018690526014908301527313dd5d1c1d5d08185b1c9958591e481cdc195b9d60621b90820152fd5b865162461bcd60e51b815291820185905260128285015271496e76616c696420616d6f756e74206b657960701b90820152fd5b50855162461bcd60e51b8152908101849052601a818401527f496e76616c69642045643235353139206f7065726174696f6e73000000000000818b0152fd5b015190511490508c8681610399565b50855162461bcd60e51b81529081018490526012818401527124b73b30b634b210222622a890383937b7b360711b818b0152fd5b845162461bcd60e51b81529081018490526010818401526f24b73b30b634b2102d2590383937b7b360811b818a0152fd5b9050843d8611610607575b601f8101601f1916820167ffffffffffffffff8111838210176105f557869183918952810103126105f1575180151581036105f1578a610277565b8880fd5b634e487b7160e01b8b5260418452858bfd5b503d6105b6565b86513d8b823e3d90fd5b8380fd5b6040810190811067ffffffffffffffff82111761063857604052565b634e487b7160e01b600052604160045260246000fd5b6060810190811067ffffffffffffffff82111761063857604052565b6000915b6002831061067b57505050565b60019082518152602080910192019201919061066e565b93969194957f1000000000000000000000000000000014def9dea2f79cd65812631a5cf5d3ed96878110156107dd576106cb81876108e4565b6106de6106d88b8a6108e4565b846107ff565b8151815114918215926107eb575b50506107dd576106fc90836108e4565b61070f6107098a876108e4565b856107ff565b8151815114918215926107c9575b50506107bc5784519560208096015194868451940151918781519101519088835193015193898651960151968a8951990151996040519b8c019c8d5260408c015260608b015260808a015260a089015260c088015260e0870152610100860152610120850152610140840152610160830152610180908183015281526101a0810181811067ffffffffffffffff82111761063857604052519020061490565b5050505050505050600090565b60209192508101519101511415388061071d565b505050505050505050600090565b6020919250810151910151141538806106ec565b9060209160405161080f8161061c565b60009381858093520152602081519101519260208351930151916013600160ff1b03928381870984868409858281837f52036cee2b6ffe738cc740797779e89800700a4d4141d8ab75eb4dca135978a30909908603908682116108d057808703958787116108bc575086809594929381809561089c82610893818098600108610977565b9b600108610977565b92080997604051996108ad8b61061c565b09920908098252602082015290565b634e487b7160e01b81526011600452602490fd5b634e487b7160e01b86526011600452602486fd5b90600060206040516108f58161061c565b8281520152801561095b5760405161090c8161061c565b600081528160019182602082015293905b6109275750505090565b8180841614610945575b8061093b916107ff565b91811c918261091d565b926109538461093b926107ff565b939050610931565b50506040516109698161061c565b600081526001602082015290565b6015600160ff1b03906001906013600160ff1b039081900682845b61099e57505050905090565b80808616146109bc575b829394811c92828493099294939291610992565b828281950993506109a856fea264697066735822122087d60dd093fa008cf7d19ec329fbf31ed6e02863d12c9b02e56d0d112d0f6fda64736f6c63430008140033",
  "linkReferences": {},
  "deployedLinkReferences": {}
}