{
  "_format": "hh-sol-artifact-1",
  "contractName": "MoneroBridgeDLEQ",
  "sourceName": "contracts/MoneroBridgeDLEQ.sol",
  "abi": [
    {
      "inputs": [
        {
          "internalType": "address",
          "name": "_verifier",
          "type": "address"
        }
      ],
      "stateMutability": "nonpayable",
      "type": "constructor"
    },
    {
      "anonymous": false,
      "inputs": [
        {
          "indexed": true,
          "internalType": "bytes32",
          "name": "outputId",
          "type": "bytes32"
        },
        {
          "indexed": true,
          "internalType": "address",
          "name": "recipient",
          "type": "address"
        },
        {
          "indexed": false,
          "internalType": "uint256",
          "name": "amount",
          "type": "uint256"
        }
      ],
      "name": "BridgeProofVerified",
      "type": "event"
    },
    {
      "anonymous": false,
      "inputs": [
        {
          "indexed": false,
          "internalType": "bytes32",
          "name": "R_x",
          "type": "bytes32"
        },
        {
          "indexed": false,
          "internalType": "bytes32",
          "name": "S_x",
          "type": "bytes32"
        },
        {
          "indexed": false,
          "internalType": "bytes32",
          "name": "P_compressed",
          "type": "bytes32"
        }
      ],
      "name": "Ed25519Verified",
      "type": "event"
    },
    {
      "inputs": [
        {
          "internalType": "bytes32",
          "name": "outputId",
          "type": "bytes32"
        }
      ],
      "name": "isOutputUsed",
      "outputs": [
        {
          "internalType": "bool",
          "name": "",
          "type": "bool"
        }
      ],
      "stateMutability": "view",
      "type": "function"
    },
    {
      "inputs": [
        {
          "internalType": "bytes32",
          "name": "",
          "type": "bytes32"
        }
      ],
      "name": "usedOutputs",
      "outputs": [
        {
          "internalType": "bool",
          "name": "",
          "type": "bool"
        }
      ],
      "stateMutability": "view",
      "type": "function"
    },
    {
      "inputs": [],
      "name": "verifier",
      "outputs": [
        {
          "internalType": "contract IPlonkVerifier",
          "name": "",
          "type": "address"
        }
      ],
      "stateMutability": "view",
      "type": "function"
    },
    {
      "inputs": [
        {
          "internalType": "uint256[24]",
          "name": "proof",
          "type": "uint256[24]"
        },
        {
          "internalType": "uint256[70]",
          "name": "publicSignals",
          "type": "uint256[70]"
        },
        {
          "components": [
            {
              "internalType": "uint256",
              "name": "c",
              "type": "uint256"
            },
            {
              "internalType": "uint256",
              "name": "s",
              "type": "uint256"
            },
            {
              "internalType": "uint256",
              "name": "K1_x",
              "type": "uint256"
            },
            {
              "internalType": "uint256",
              "name": "K1_y",
              "type": "uint256"
            },
            {
              "internalType": "uint256",
              "name": "K2_x",
              "type": "uint256"
            },
            {
              "internalType": "uint256",
              "name": "K2_y",
              "type": "uint256"
            }
          ],
          "internalType": "struct MoneroBridgeDLEQ.DLEQProof",
          "name": "dleqProof",
          "type": "tuple"
        },
        {
          "components": [
            {
              "internalType": "uint256",
              "name": "G_x",
              "type": "uint256"
            },
            {
              "internalType": "uint256",
              "name": "G_y",
              "type": "uint256"
            },
            {
              "internalType": "uint256",
              "name": "A_x",
              "type": "uint256"
            },
            {
              "internalType": "uint256",
              "name": "A_y",
              "type": "uint256"
            },
            {
              "internalType": "uint256",
              "name": "B_x",
              "type": "uint256"
            },
            {
              "internalType": "uint256",
              "name": "B_y",
              "type": "uint256"
            },
            {
              "internalType": "uint256",
              "name": "R_x",
              "type": "uint256"
            },
            {
              "internalType": "uint256",
              "name": "R_y",
              "type": "uint256"
            },
            {
              "internalType": "uint256",
              "name": "S_x",
              "type": "uint256"
            },
            {
              "internalType": "uint256",
              "name": "S_y",
              "type": "uint256"
            },
            {
              "internalType": "uint256",
              "name": "H_s",
              "type": "uint256"
            }
          ],
          "internalType": "struct MoneroBridgeDLEQ.Ed25519Proof",
          "name": "ed25519Proof",
          "type": "tuple"
        }
      ],
      "name": "verifyAndMint",
      "outputs": [],
      "stateMutability": "nonpayable",
      "type": "function"
    }
  ],
  "bytecode": "0x60a03461007257601f610be938819003918201601f19168301916001600160401b038311848410176100775780849260209460405283398101031261007257516001600160a01b0381169081900361007257608052604051610b5b908161008e8239608051818181609101526101420152f35b600080fd5b634e487b7160e01b600052604160045260246000fdfe6080604052600436101561001257600080fd5b6000803560e01c9081632b7ac3f31461007f578163a43c69db1461005557508063a9d29a6c146100505763e0d5b8cc1461004b57600080fd5b6102ca565b6100da565b3461007c5760ff604060209261006a366100c3565b81528084522054166040519015158152f35b80fd5b3461007c578060031936011261007c577f00000000000000000000000000000000000000000000000000000000000000006001600160a01b03166080908152602090f35b60209060031901126100d55760043590565b600080fd5b346100d557610de03660031901126100d55736610304116100d55736610bc4116100d55760c036610bc31901126100d55761016036610c831901126100d557604051632cdb32b760e21b815261036435610324356020838061013e60048201610345565b03817f00000000000000000000000000000000000000000000000000000000000000006001600160a01b03165afa9283156102c5577fba20cafe06d609214664dffaf8f92ba828a6fecd3cedcd25b4719dce30d9048a936101a791600091610297575b5061036b565b6101c76101c2610da435610d8435610d6435610d4435610451565b6103ad565b60408051602081018381528183018590529181526101e66060826102f5565b51902061021661021161020d610206846000526000602052604060002090565b5460ff1690565b1590565b6103ee565b61023a61022d826000526000602052604060002090565b805460ff19166001179055565b60405167ffffffffffffffff6103a43516610384351881523391907f8811769d1b8ad6b8d0e48cbdb48833dc26328110a9474690b08ff030479e49fd90602090a360408051918252610344356020830152810191909152606090a1005b6102b8915060203d81116102be575b6102b081836102f5565b81019061032d565b386101a1565b503d6102a6565b61035f565b346100d5576102d8366100c3565b6000526000602052602060ff604060002054166040519015158152f35b90601f8019910116810190811067ffffffffffffffff82111761031757604052565b634e487b7160e01b600052604160045260246000fd5b908160209103126100d5575180151581036100d55790565b906108c0610304610bc08401936103009081600482370137565b6040513d6000823e3d90fd5b1561037257565b60405162461bcd60e51b815260206004820152601360248201527224b73b30b634b210282627a72590383937b7b360691b6044820152606490fd5b156103b457565b60405162461bcd60e51b815260206004820152601260248201527124b73b30b634b210222622a890383937b7b360711b6044820152606490fd5b156103f557565b60405162461bcd60e51b815260206004820152601460248201527313dd5d1c1d5d08185b1c9958591e481cdc195b9d60621b6044820152606490fd5b604051906060820182811067ffffffffffffffff82111761031757604052565b91906105059391610460610431565b90610c84358252602094610ca4358684015260016040958187860152610484610431565b95610cc4358752610ce4358988015282888801526104a0610431565b9384528884015281878401526104b4610431565b9384528784015280868401526104c8610431565b95610c04358752610c24358888015281818801526104e4610431565b97610c44358952610c643590890152870152610be43593610bc43593610508565b90565b929196909493966f14def9dea2f79cd65812631a5cf5d3ed600160fc1b0185101561069b57610537858561096b565b9461054b6105458a8461096b565b896107c9565b9061055960408301516106fe565b966013600160ff1b03978389828196510980825260209a8b80930193845109809352835114928315936106c5575b5050506106b657610598908861096b565b90866105ad6105a78c8861096b565b866107c9565b6105ba60408201516106fe565b92828185845109928381520193845109809352835114928315936106a8575b50505061069b578484519401519685875197015193868351930151908781519101519188845194015194898751970151976040519b8c9b8c019d6106699b8f9a9896949290916101809c9a989694928c5260208c015260408b015260608a0152608089015260a088015260c087015260e08601526101008501526101208401526101408301526101608201520190565b03601f198101825261067b90826102f5565b5190206f14def9dea2f79cd65812631a5cf5d3ed600160fc1b0190061490565b5050505050505050600090565b0151141590503886816105d9565b50505050505050505050600090565b015114159050388881610587565b6013600160ff1b03908103919082116106e857565b634e487b7160e01b600052601160045260246000fd5b60408051602080825280820181905291810182905260608101929092526015600160ff1b0360808301526013600160ff1b0360a08301528160c081600562030d40fa156100d5575190565b604051906060820182811067ffffffffffffffff8211176103175760405260006040838281528260208201520152565b60405190610100820182811067ffffffffffffffff821117610317576040528160e06000918281528260208201528260408201528260608201528260808201528260a08201528260c08201520152565b91906107d3610749565b926107dc610779565b604082810151908401519193916013600160ff1b0391098084526013600160ff1b038180096020850152825182516013600160ff1b03910960408501819052602084810151908401516013600160ff1b039109606086018190526013600160ff1b0391829190097f52036cee2b6ffe738cc740797779e89800700a4d4141d8ab75eb4dca135978a309608085018190526013600160ff1b03919061087f906106d3565b906013600160ff1b039080090860a08401819052602084015160808501516013600160ff1b03910860c085015283516013600160ff1b03919009825160209093015190926013600160ff1b0391900881516020909201516013600160ff1b039283919008900960408301516013600160ff1b0391906108fd906106d3565b900860608301516013600160ff1b0392918391610919906106d3565b900890098352805160c08201516013600160ff1b039109606082015160408301516013600160ff1b039291839190089009602084015260a081015160c0909101516013600160ff1b0391096040830152565b9190610975610749565b9260008452600191806020928484880152846040880152915b6109c257505060408401906109a382516106fe565b855190916013600160ff1b039182908490098752860191825109905252565b8380821614610b14575b831c80916109d8610749565b9060a06109e3610779565b8251878401805190916013600160ff1b0391900880835288830194906013600160ff1b0390800985528051604090610a3d906013600160ff1b0390800985830181815294516013600160ff1b0390800960608701526106d3565b6080850181905260608501516013600160ff1b0391088486018190529101516013600160ff1b0390800960e084018190526013600160ff1b039190610a869083906002096106d3565b900860c08301908152935190516013600160ff1b039190610aa6906106d3565b900860608201516013600160ff1b039190610ac0906106d3565b900883516013600160ff1b039109845280820151608082015160608301516013600160ff1b0392918391610af3906106d3565b9008900984880152015190516013600160ff1b03910960408201529161098e565b9481610b1f916107c9565b946109cc56fea2646970667358221220a8f5b73738192eb8eb877905b8910fb87a361ad0681397742fc81dd5a1dedc1464736f6c63430008140033",
  "linkReferences": {},
  "deployedLinkReferences": {}
}